{
  "contractName": "NFTMarket",
  "abi": [
    {
      "inputs": [],
      "stateMutability": "nonpayable",
      "type": "constructor"
    },
    {
      "anonymous": false,
      "inputs": [
        {
          "indexed": true,
          "internalType": "address",
          "name": "owner",
          "type": "address"
        },
        {
          "indexed": true,
          "internalType": "address",
          "name": "approved",
          "type": "address"
        },
        {
          "indexed": true,
          "internalType": "uint256",
          "name": "tokenId",
          "type": "uint256"
        }
      ],
      "name": "Approval",
      "type": "event"
    },
    {
      "anonymous": false,
      "inputs": [
        {
          "indexed": true,
          "internalType": "address",
          "name": "owner",
          "type": "address"
        },
        {
          "indexed": true,
          "internalType": "address",
          "name": "operator",
          "type": "address"
        },
        {
          "indexed": false,
          "internalType": "bool",
          "name": "approved",
          "type": "bool"
        }
      ],
      "name": "ApprovalForAll",
      "type": "event"
    },
    {
      "anonymous": false,
      "inputs": [
        {
          "indexed": true,
          "internalType": "address",
          "name": "from",
          "type": "address"
        },
        {
          "indexed": true,
          "internalType": "address",
          "name": "to",
          "type": "address"
        },
        {
          "indexed": true,
          "internalType": "uint256",
          "name": "tokenId",
          "type": "uint256"
        }
      ],
      "name": "Transfer",
      "type": "event"
    },
    {
      "inputs": [
        {
          "internalType": "address",
          "name": "to",
          "type": "address"
        },
        {
          "internalType": "uint256",
          "name": "tokenId",
          "type": "uint256"
        }
      ],
      "name": "approve",
      "outputs": [],
      "stateMutability": "nonpayable",
      "type": "function"
    },
    {
      "inputs": [
        {
          "internalType": "address",
          "name": "owner",
          "type": "address"
        }
      ],
      "name": "balanceOf",
      "outputs": [
        {
          "internalType": "uint256",
          "name": "",
          "type": "uint256"
        }
      ],
      "stateMutability": "view",
      "type": "function",
      "constant": true
    },
    {
      "inputs": [
        {
          "internalType": "uint256",
          "name": "",
          "type": "uint256"
        }
      ],
      "name": "colorsName",
      "outputs": [
        {
          "internalType": "string",
          "name": "",
          "type": "string"
        }
      ],
      "stateMutability": "view",
      "type": "function",
      "constant": true
    },
    {
      "inputs": [
        {
          "internalType": "string",
          "name": "colorCode",
          "type": "string"
        }
      ],
      "name": "createToken",
      "outputs": [],
      "stateMutability": "nonpayable",
      "type": "function"
    },
    {
      "inputs": [
        {
          "internalType": "uint256",
          "name": "tokenId",
          "type": "uint256"
        }
      ],
      "name": "getApproved",
      "outputs": [
        {
          "internalType": "address",
          "name": "",
          "type": "address"
        }
      ],
      "stateMutability": "view",
      "type": "function",
      "constant": true
    },
    {
      "inputs": [],
      "name": "getTokenCount",
      "outputs": [
        {
          "internalType": "uint256",
          "name": "",
          "type": "uint256"
        }
      ],
      "stateMutability": "view",
      "type": "function",
      "constant": true
    },
    {
      "inputs": [
        {
          "internalType": "uint256",
          "name": "",
          "type": "uint256"
        }
      ],
      "name": "idToMarketItem",
      "outputs": [
        {
          "internalType": "uint256",
          "name": "itemId",
          "type": "uint256"
        },
        {
          "internalType": "uint256",
          "name": "tokenId",
          "type": "uint256"
        },
        {
          "internalType": "address payable",
          "name": "seller",
          "type": "address"
        },
        {
          "internalType": "bool",
          "name": "sold",
          "type": "bool"
        }
      ],
      "stateMutability": "view",
      "type": "function",
      "constant": true
    },
    {
      "inputs": [
        {
          "internalType": "address",
          "name": "owner",
          "type": "address"
        },
        {
          "internalType": "address",
          "name": "operator",
          "type": "address"
        }
      ],
      "name": "isApprovedForAll",
      "outputs": [
        {
          "internalType": "bool",
          "name": "",
          "type": "bool"
        }
      ],
      "stateMutability": "view",
      "type": "function",
      "constant": true
    },
    {
      "inputs": [],
      "name": "itemIds",
      "outputs": [
        {
          "internalType": "uint256",
          "name": "_value",
          "type": "uint256"
        }
      ],
      "stateMutability": "view",
      "type": "function",
      "constant": true
    },
    {
      "inputs": [],
      "name": "name",
      "outputs": [
        {
          "internalType": "string",
          "name": "",
          "type": "string"
        }
      ],
      "stateMutability": "view",
      "type": "function",
      "constant": true
    },
    {
      "inputs": [
        {
          "internalType": "uint256",
          "name": "tokenId",
          "type": "uint256"
        }
      ],
      "name": "ownerOf",
      "outputs": [
        {
          "internalType": "address",
          "name": "",
          "type": "address"
        }
      ],
      "stateMutability": "view",
      "type": "function",
      "constant": true
    },
    {
      "inputs": [
        {
          "internalType": "address",
          "name": "from",
          "type": "address"
        },
        {
          "internalType": "address",
          "name": "to",
          "type": "address"
        },
        {
          "internalType": "uint256",
          "name": "tokenId",
          "type": "uint256"
        }
      ],
      "name": "safeTransferFrom",
      "outputs": [],
      "stateMutability": "nonpayable",
      "type": "function"
    },
    {
      "inputs": [
        {
          "internalType": "address",
          "name": "from",
          "type": "address"
        },
        {
          "internalType": "address",
          "name": "to",
          "type": "address"
        },
        {
          "internalType": "uint256",
          "name": "tokenId",
          "type": "uint256"
        },
        {
          "internalType": "bytes",
          "name": "_data",
          "type": "bytes"
        }
      ],
      "name": "safeTransferFrom",
      "outputs": [],
      "stateMutability": "nonpayable",
      "type": "function"
    },
    {
      "inputs": [
        {
          "internalType": "address",
          "name": "operator",
          "type": "address"
        },
        {
          "internalType": "bool",
          "name": "approved",
          "type": "bool"
        }
      ],
      "name": "setApprovalForAll",
      "outputs": [],
      "stateMutability": "nonpayable",
      "type": "function"
    },
    {
      "inputs": [
        {
          "internalType": "bytes4",
          "name": "interfaceId",
          "type": "bytes4"
        }
      ],
      "name": "supportsInterface",
      "outputs": [
        {
          "internalType": "bool",
          "name": "",
          "type": "bool"
        }
      ],
      "stateMutability": "view",
      "type": "function",
      "constant": true
    },
    {
      "inputs": [],
      "name": "symbol",
      "outputs": [
        {
          "internalType": "string",
          "name": "",
          "type": "string"
        }
      ],
      "stateMutability": "view",
      "type": "function",
      "constant": true
    },
    {
      "inputs": [
        {
          "internalType": "uint256",
          "name": "tokenId",
          "type": "uint256"
        }
      ],
      "name": "tokenURI",
      "outputs": [
        {
          "internalType": "string",
          "name": "",
          "type": "string"
        }
      ],
      "stateMutability": "view",
      "type": "function",
      "constant": true
    },
    {
      "inputs": [
        {
          "internalType": "address",
          "name": "from",
          "type": "address"
        },
        {
          "internalType": "address",
          "name": "to",
          "type": "address"
        },
        {
          "internalType": "uint256",
          "name": "tokenId",
          "type": "uint256"
        }
      ],
      "name": "transferFrom",
      "outputs": [],
      "stateMutability": "nonpayable",
      "type": "function"
    },
    {
      "inputs": [],
      "name": "getItemCount",
      "outputs": [
        {
          "internalType": "uint256",
          "name": "",
          "type": "uint256"
        }
      ],
      "stateMutability": "view",
      "type": "function",
      "constant": true
    },
    {
      "inputs": [
        {
          "internalType": "uint256",
          "name": "tokenId",
          "type": "uint256"
        }
      ],
      "name": "putNFTOnSale",
      "outputs": [],
      "stateMutability": "payable",
      "type": "function",
      "payable": true
    },
    {
      "inputs": [
        {
          "internalType": "uint256",
          "name": "itemId",
          "type": "uint256"
        }
      ],
      "name": "finalizeSale",
      "outputs": [],
      "stateMutability": "payable",
      "type": "function",
      "payable": true
    }
  ],
  "bytecode": "0x60806040526658d15e17628000600c553480156200001c57600080fd5b506040518060400160405280600a81526020017f436f6c6f72546f6b656e000000000000000000000000000000000000000000008152506040518060400160405280600281526020017f43540000000000000000000000000000000000000000000000000000000000008152508160009080519060200190620000a19291906200010c565b508060019080519060200190620000ba9291906200010c565b505050600160098190555033600b60006101000a81548173ffffffffffffffffffffffffffffffffffffffff021916908373ffffffffffffffffffffffffffffffffffffffff16021790555062000220565b8280546200011a90620001eb565b90600052602060002090601f0160209004810192826200013e57600085556200018a565b82601f106200015957805160ff19168380011785556200018a565b828001600101855582156200018a579182015b82811115620001895782518255916020019190600101906200016c565b5b5090506200019991906200019d565b5090565b5b80821115620001b85760008160009055506001016200019e565b5090565b7f4e487b7100000000000000000000000000000000000000000000000000000000600052602260045260246000fd5b600060028204905060018216806200020457607f821691505b6020821081036200021a5762000219620001bc565b5b50919050565b6133a780620002306000396000f3fe6080604052600436106101295760003560e01c806370a08231116100ab578063aa9293801161006f578063aa92938014610403578063b541eb891461041f578063b88d4fde1461043b578063c87b56dd14610464578063e61a70c0146104a1578063e985e9c5146104e157610129565b806370a082311461031c5780637749cf231461035957806378a895671461038457806395d89b41146103af578063a22cb465146103da57610129565b806323b872dd116100f257806323b872dd1461022757806342842e0e14610250578063439ee1381461027957806345576f94146102b65780636352211e146102df57610129565b8062b921cb1461012e57806301ffc9a71461015957806306fdde0314610196578063081812fc146101c1578063095ea7b3146101fe575b600080fd5b34801561013a57600080fd5b5061014361051e565b6040516101509190611f4c565b60405180910390f35b34801561016557600080fd5b50610180600480360381019061017b9190611fd3565b61052a565b60405161018d919061201b565b60405180910390f35b3480156101a257600080fd5b506101ab61060c565b6040516101b891906120cf565b60405180910390f35b3480156101cd57600080fd5b506101e860048036038101906101e3919061211d565b61069e565b6040516101f5919061218b565b60405180910390f35b34801561020a57600080fd5b50610225600480360381019061022091906121d2565b610723565b005b34801561023357600080fd5b5061024e60048036038101906102499190612212565b61083a565b005b34801561025c57600080fd5b5061027760048036038101906102729190612212565b61089a565b005b34801561028557600080fd5b506102a0600480360381019061029b919061211d565b6108ba565b6040516102ad91906120cf565b60405180910390f35b3480156102c257600080fd5b506102dd60048036038101906102d8919061239a565b61095a565b005b3480156102eb57600080fd5b506103066004803603810190610301919061211d565b610a15565b604051610313919061218b565b60405180910390f35b34801561032857600080fd5b50610343600480360381019061033e91906123e3565b610ac6565b6040516103509190611f4c565b60405180910390f35b34801561036557600080fd5b5061036e610b7d565b60405161037b9190611f4c565b60405180910390f35b34801561039057600080fd5b50610399610b8e565b6040516103a69190611f4c565b60405180910390f35b3480156103bb57600080fd5b506103c4610b9f565b6040516103d191906120cf565b60405180910390f35b3480156103e657600080fd5b5061040160048036038101906103fc919061243c565b610c31565b005b61041d6004803603810190610418919061211d565b610c47565b005b6104396004803603810190610434919061211d565b610f01565b005b34801561044757600080fd5b50610462600480360381019061045d919061251d565b6110cb565b005b34801561047057600080fd5b5061048b6004803603810190610486919061211d565b61112d565b60405161049891906120cf565b60405180910390f35b3480156104ad57600080fd5b506104c860048036038101906104c3919061211d565b6111d4565b6040516104d894939291906125c1565b60405180910390f35b3480156104ed57600080fd5b5061050860048036038101906105039190612606565b611231565b604051610515919061201b565b60405180910390f35b600a8060000154905081565b60007f80ac58cd000000000000000000000000000000000000000000000000000000007bffffffffffffffffffffffffffffffffffffffffffffffffffffffff1916827bffffffffffffffffffffffffffffffffffffffffffffffffffffffff191614806105f557507f5b5e139f000000000000000000000000000000000000000000000000000000007bffffffffffffffffffffffffffffffffffffffffffffffffffffffff1916827bffffffffffffffffffffffffffffffffffffffffffffffffffffffff1916145b806106055750610604826112c5565b5b9050919050565b60606000805461061b90612675565b80601f016020809104026020016040519081016040528092919081815260200182805461064790612675565b80156106945780601f1061066957610100808354040283529160200191610694565b820191906000526020600020905b81548152906001019060200180831161067757829003601f168201915b5050505050905090565b60006106a98261132f565b6106e8576040517f08c379a00000000000000000000000000000000000000000000000000000000081526004016106df90612718565b60405180910390fd5b6004600083815260200190815260200160002060009054906101000a900473ffffffffffffffffffffffffffffffffffffffff169050919050565b600061072e82610a15565b90508073ffffffffffffffffffffffffffffffffffffffff168373ffffffffffffffffffffffffffffffffffffffff160361079e576040517f08c379a0000000000000000000000000000000000000000000000000000000008152600401610795906127aa565b60405180910390fd5b8073ffffffffffffffffffffffffffffffffffffffff166107bd61139b565b73ffffffffffffffffffffffffffffffffffffffff1614806107ec57506107eb816107e661139b565b611231565b5b61082b576040517f08c379a00000000000000000000000000000000000000000000000000000000081526004016108229061283c565b60405180910390fd5b61083583836113a3565b505050565b61084b61084561139b565b8261145c565b61088a576040517f08c379a0000000000000000000000000000000000000000000000000000000008152600401610881906128ce565b60405180910390fd5b61089583838361153a565b505050565b6108b5838383604051806020016040528060008152506110cb565b505050565b600660205280600052604060002060009150905080546108d990612675565b80601f016020809104026020016040519081016040528092919081815260200182805461090590612675565b80156109525780601f1061092757610100808354040283529160200191610952565b820191906000526020600020905b81548152906001019060200180831161093557829003601f168201915b505050505081565b60078160405161096a919061292a565b908152602001604051809103902060009054906101000a900460ff161561099057600080fd5b61099a60086117a0565b60006109a660086117b6565b9050816006600083815260200190815260200160002090805190602001906109cf929190611e90565b5060016007836040516109e2919061292a565b908152602001604051809103902060006101000a81548160ff021916908315150217905550610a1133826117c4565b5050565b6000806002600084815260200190815260200160002060009054906101000a900473ffffffffffffffffffffffffffffffffffffffff169050600073ffffffffffffffffffffffffffffffffffffffff168173ffffffffffffffffffffffffffffffffffffffff1603610abd576040517f08c379a0000000000000000000000000000000000000000000000000000000008152600401610ab4906129b3565b60405180910390fd5b80915050919050565b60008073ffffffffffffffffffffffffffffffffffffffff168273ffffffffffffffffffffffffffffffffffffffff1603610b36576040517f08c379a0000000000000000000000000000000000000000000000000000000008152600401610b2d90612a45565b60405180910390fd5b600360008373ffffffffffffffffffffffffffffffffffffffff1673ffffffffffffffffffffffffffffffffffffffff168152602001908152602001600020549050919050565b6000610b89600a6117b6565b905090565b6000610b9a60086117b6565b905090565b606060018054610bae90612675565b80601f0160208091040260200160405190810160405280929190818152602001828054610bda90612675565b8015610c275780601f10610bfc57610100808354040283529160200191610c27565b820191906000526020600020905b815481529060010190602001808311610c0a57829003601f168201915b5050505050905090565b610c43610c3c61139b565b838361199d565b5050565b600260095403610c8c576040517f08c379a0000000000000000000000000000000000000000000000000000000008152600401610c8390612ab1565b60405180910390fd5b60026009819055506000600d6000838152602001908152602001600020600101549050610cb881610a15565b73ffffffffffffffffffffffffffffffffffffffff163373ffffffffffffffffffffffffffffffffffffffff1603610cef57600080fd5b670de0b6b3a76400003414610d39576040517f08c379a0000000000000000000000000000000000000000000000000000000008152600401610d3090612b43565b60405180910390fd5b600d600083815260200190815260200160002060020160009054906101000a900473ffffffffffffffffffffffffffffffffffffffff1673ffffffffffffffffffffffffffffffffffffffff166108fc349081150290604051600060405180830381858888f19350505050158015610db5573d6000803e3d6000fd5b503073ffffffffffffffffffffffffffffffffffffffff166323b872dd600d600085815260200190815260200160002060020160009054906101000a900473ffffffffffffffffffffffffffffffffffffffff1633846040518463ffffffff1660e01b8152600401610e2993929190612bc2565b600060405180830381600087803b158015610e4357600080fd5b505af1158015610e57573d6000803e3d6000fd5b505050506001600d600084815260200190815260200160002060020160146101000a81548160ff021916908315150217905550600b60009054906101000a900473ffffffffffffffffffffffffffffffffffffffff1673ffffffffffffffffffffffffffffffffffffffff166108fc600c549081150290604051600060405180830381858888f19350505050158015610ef4573d6000803e3d6000fd5b5050600160098190555050565b600260095403610f46576040517f08c379a0000000000000000000000000000000000000000000000000000000008152600401610f3d90612ab1565b60405180910390fd5b6002600981905550610f5781610a15565b73ffffffffffffffffffffffffffffffffffffffff163373ffffffffffffffffffffffffffffffffffffffff1614610f8e57600080fd5b600c543414610fd2576040517f08c379a0000000000000000000000000000000000000000000000000000000008152600401610fc990612c6b565b60405180910390fd5b610fdc3082610723565b610fe6600a6117a0565b6000610ff2600a6117b6565b905060405180608001604052808281526020018381526020013373ffffffffffffffffffffffffffffffffffffffff16815260200160001515815250600d6000838152602001908152602001600020600082015181600001556020820151816001015560408201518160020160006101000a81548173ffffffffffffffffffffffffffffffffffffffff021916908373ffffffffffffffffffffffffffffffffffffffff16021790555060608201518160020160146101000a81548160ff02191690831515021790555090505050600160098190555050565b6110dc6110d661139b565b8361145c565b61111b576040517f08c379a0000000000000000000000000000000000000000000000000000000008152600401611112906128ce565b60405180910390fd5b61112784848484611b09565b50505050565b60606111388261132f565b611177576040517f08c379a000000000000000000000000000000000000000000000000000000000815260040161116e90612cfd565b60405180910390fd5b6000611181611b65565b905060008151116111a157604051806020016040528060008152506111cc565b806111ab84611b7c565b6040516020016111bc929190612d1d565b6040516020818303038152906040525b915050919050565b600d6020528060005260406000206000915090508060000154908060010154908060020160009054906101000a900473ffffffffffffffffffffffffffffffffffffffff16908060020160149054906101000a900460ff16905084565b6000600560008473ffffffffffffffffffffffffffffffffffffffff1673ffffffffffffffffffffffffffffffffffffffff16815260200190815260200160002060008373ffffffffffffffffffffffffffffffffffffffff1673ffffffffffffffffffffffffffffffffffffffff16815260200190815260200160002060009054906101000a900460ff16905092915050565b60007f01ffc9a7000000000000000000000000000000000000000000000000000000007bffffffffffffffffffffffffffffffffffffffffffffffffffffffff1916827bffffffffffffffffffffffffffffffffffffffffffffffffffffffff1916149050919050565b60008073ffffffffffffffffffffffffffffffffffffffff166002600084815260200190815260200160002060009054906101000a900473ffffffffffffffffffffffffffffffffffffffff1673ffffffffffffffffffffffffffffffffffffffff1614159050919050565b600033905090565b816004600083815260200190815260200160002060006101000a81548173ffffffffffffffffffffffffffffffffffffffff021916908373ffffffffffffffffffffffffffffffffffffffff160217905550808273ffffffffffffffffffffffffffffffffffffffff1661141683610a15565b73ffffffffffffffffffffffffffffffffffffffff167f8c5be1e5ebec7d5bd14f71427d1e84f3dd0314c0f7b2291e5b200ac8c7c3b92560405160405180910390a45050565b60006114678261132f565b6114a6576040517f08c379a000000000000000000000000000000000000000000000000000000000815260040161149d90612db3565b60405180910390fd5b60006114b183610a15565b90508073ffffffffffffffffffffffffffffffffffffffff168473ffffffffffffffffffffffffffffffffffffffff1614806114f357506114f28185611231565b5b8061153157508373ffffffffffffffffffffffffffffffffffffffff166115198461069e565b73ffffffffffffffffffffffffffffffffffffffff16145b91505092915050565b8273ffffffffffffffffffffffffffffffffffffffff1661155a82610a15565b73ffffffffffffffffffffffffffffffffffffffff16146115b0576040517f08c379a00000000000000000000000000000000000000000000000000000000081526004016115a790612e45565b60405180910390fd5b600073ffffffffffffffffffffffffffffffffffffffff168273ffffffffffffffffffffffffffffffffffffffff160361161f576040517f08c379a000000000000000000000000000000000000000000000000000000000815260040161161690612ed7565b60405180910390fd5b61162a838383611cdc565b6116356000826113a3565b6001600360008573ffffffffffffffffffffffffffffffffffffffff1673ffffffffffffffffffffffffffffffffffffffff16815260200190815260200160002060008282546116859190612f26565b925050819055506001600360008473ffffffffffffffffffffffffffffffffffffffff1673ffffffffffffffffffffffffffffffffffffffff16815260200190815260200160002060008282546116dc9190612f5a565b92505081905550816002600083815260200190815260200160002060006101000a81548173ffffffffffffffffffffffffffffffffffffffff021916908373ffffffffffffffffffffffffffffffffffffffff160217905550808273ffffffffffffffffffffffffffffffffffffffff168473ffffffffffffffffffffffffffffffffffffffff167fddf252ad1be2c89b69c2b068fc378daa952ba7f163c4a11628f55a4df523b3ef60405160405180910390a461179b838383611ce1565b505050565b6001816000016000828254019250508190555050565b600081600001549050919050565b600073ffffffffffffffffffffffffffffffffffffffff168273ffffffffffffffffffffffffffffffffffffffff1603611833576040517f08c379a000000000000000000000000000000000000000000000000000000000815260040161182a90612ffc565b60405180910390fd5b61183c8161132f565b1561187c576040517f08c379a000000000000000000000000000000000000000000000000000000000815260040161187390613068565b60405180910390fd5b61188860008383611cdc565b6001600360008473ffffffffffffffffffffffffffffffffffffffff1673ffffffffffffffffffffffffffffffffffffffff16815260200190815260200160002060008282546118d89190612f5a565b92505081905550816002600083815260200190815260200160002060006101000a81548173ffffffffffffffffffffffffffffffffffffffff021916908373ffffffffffffffffffffffffffffffffffffffff160217905550808273ffffffffffffffffffffffffffffffffffffffff16600073ffffffffffffffffffffffffffffffffffffffff167fddf252ad1be2c89b69c2b068fc378daa952ba7f163c4a11628f55a4df523b3ef60405160405180910390a461199960008383611ce1565b5050565b8173ffffffffffffffffffffffffffffffffffffffff168373ffffffffffffffffffffffffffffffffffffffff1603611a0b576040517f08c379a0000000000000000000000000000000000000000000000000000000008152600401611a02906130d4565b60405180910390fd5b80600560008573ffffffffffffffffffffffffffffffffffffffff1673ffffffffffffffffffffffffffffffffffffffff16815260200190815260200160002060008473ffffffffffffffffffffffffffffffffffffffff1673ffffffffffffffffffffffffffffffffffffffff16815260200190815260200160002060006101000a81548160ff0219169083151502179055508173ffffffffffffffffffffffffffffffffffffffff168373ffffffffffffffffffffffffffffffffffffffff167f17307eab39ab6107e8899845ad3d59bd9653f200f220920489ca2b5937696c3183604051611afc919061201b565b60405180910390a3505050565b611b1484848461153a565b611b2084848484611ce6565b611b5f576040517f08c379a0000000000000000000000000000000000000000000000000000000008152600401611b5690613166565b60405180910390fd5b50505050565b606060405180602001604052806000815250905090565b606060008203611bc3576040518060400160405280600181526020017f30000000000000000000000000000000000000000000000000000000000000008152509050611cd7565b600082905060005b60008214611bf5578080611bde90613186565b915050600a82611bee91906131fd565b9150611bcb565b60008167ffffffffffffffff811115611c1157611c1061226f565b5b6040519080825280601f01601f191660200182016040528015611c435781602001600182028036833780820191505090505b5090505b60008514611cd057600182611c5c9190612f26565b9150600a85611c6b919061322e565b6030611c779190612f5a565b60f81b818381518110611c8d57611c8c61325f565b5b60200101907effffffffffffffffffffffffffffffffffffffffffffffffffffffffffffff1916908160001a905350600a85611cc991906131fd565b9450611c47565b8093505050505b919050565b505050565b505050565b6000611d078473ffffffffffffffffffffffffffffffffffffffff16611e6d565b15611e60578373ffffffffffffffffffffffffffffffffffffffff1663150b7a02611d3061139b565b8786866040518563ffffffff1660e01b8152600401611d5294939291906132e3565b6020604051808303816000875af1925050508015611d8e57506040513d601f19601f82011682018060405250810190611d8b9190613344565b60015b611e10573d8060008114611dbe576040519150601f19603f3d011682016040523d82523d6000602084013e611dc3565b606091505b506000815103611e08576040517f08c379a0000000000000000000000000000000000000000000000000000000008152600401611dff90613166565b60405180910390fd5b805181602001fd5b63150b7a0260e01b7bffffffffffffffffffffffffffffffffffffffffffffffffffffffff1916817bffffffffffffffffffffffffffffffffffffffffffffffffffffffff191614915050611e65565b600190505b949350505050565b6000808273ffffffffffffffffffffffffffffffffffffffff163b119050919050565b828054611e9c90612675565b90600052602060002090601f016020900481019282611ebe5760008555611f05565b82601f10611ed757805160ff1916838001178555611f05565b82800160010185558215611f05579182015b82811115611f04578251825591602001919060010190611ee9565b5b509050611f129190611f16565b5090565b5b80821115611f2f576000816000905550600101611f17565b5090565b6000819050919050565b611f4681611f33565b82525050565b6000602082019050611f616000830184611f3d565b92915050565b6000604051905090565b600080fd5b600080fd5b60007fffffffff0000000000000000000000000000000000000000000000000000000082169050919050565b611fb081611f7b565b8114611fbb57600080fd5b50565b600081359050611fcd81611fa7565b92915050565b600060208284031215611fe957611fe8611f71565b5b6000611ff784828501611fbe565b91505092915050565b60008115159050919050565b61201581612000565b82525050565b6000602082019050612030600083018461200c565b92915050565b600081519050919050565b600082825260208201905092915050565b60005b83811015612070578082015181840152602081019050612055565b8381111561207f576000848401525b50505050565b6000601f19601f8301169050919050565b60006120a182612036565b6120ab8185612041565b93506120bb818560208601612052565b6120c481612085565b840191505092915050565b600060208201905081810360008301526120e98184612096565b905092915050565b6120fa81611f33565b811461210557600080fd5b50565b600081359050612117816120f1565b92915050565b60006020828403121561213357612132611f71565b5b600061214184828501612108565b91505092915050565b600073ffffffffffffffffffffffffffffffffffffffff82169050919050565b60006121758261214a565b9050919050565b6121858161216a565b82525050565b60006020820190506121a0600083018461217c565b92915050565b6121af8161216a565b81146121ba57600080fd5b50565b6000813590506121cc816121a6565b92915050565b600080604083850312156121e9576121e8611f71565b5b60006121f7858286016121bd565b925050602061220885828601612108565b9150509250929050565b60008060006060848603121561222b5761222a611f71565b5b6000612239868287016121bd565b935050602061224a868287016121bd565b925050604061225b86828701612108565b9150509250925092565b600080fd5b600080fd5b7f4e487b7100000000000000000000000000000000000000000000000000000000600052604160045260246000fd5b6122a782612085565b810181811067ffffffffffffffff821117156122c6576122c561226f565b5b80604052505050565b60006122d9611f67565b90506122e5828261229e565b919050565b600067ffffffffffffffff8211156123055761230461226f565b5b61230e82612085565b9050602081019050919050565b82818337600083830152505050565b600061233d612338846122ea565b6122cf565b9050828152602081018484840111156123595761235861226a565b5b61236484828561231b565b509392505050565b600082601f83011261238157612380612265565b5b813561239184826020860161232a565b91505092915050565b6000602082840312156123b0576123af611f71565b5b600082013567ffffffffffffffff8111156123ce576123cd611f76565b5b6123da8482850161236c565b91505092915050565b6000602082840312156123f9576123f8611f71565b5b6000612407848285016121bd565b91505092915050565b61241981612000565b811461242457600080fd5b50565b60008135905061243681612410565b92915050565b6000806040838503121561245357612452611f71565b5b6000612461858286016121bd565b925050602061247285828601612427565b9150509250929050565b600067ffffffffffffffff8211156124975761249661226f565b5b6124a082612085565b9050602081019050919050565b60006124c06124bb8461247c565b6122cf565b9050828152602081018484840111156124dc576124db61226a565b5b6124e784828561231b565b509392505050565b600082601f83011261250457612503612265565b5b81356125148482602086016124ad565b91505092915050565b6000806000806080858703121561253757612536611f71565b5b6000612545878288016121bd565b9450506020612556878288016121bd565b935050604061256787828801612108565b925050606085013567ffffffffffffffff81111561258857612587611f76565b5b612594878288016124ef565b91505092959194509250565b60006125ab8261214a565b9050919050565b6125bb816125a0565b82525050565b60006080820190506125d66000830187611f3d565b6125e36020830186611f3d565b6125f060408301856125b2565b6125fd606083018461200c565b95945050505050565b6000806040838503121561261d5761261c611f71565b5b600061262b858286016121bd565b925050602061263c858286016121bd565b9150509250929050565b7f4e487b7100000000000000000000000000000000000000000000000000000000600052602260045260246000fd5b6000600282049050600182168061268d57607f821691505b6020821081036126a05761269f612646565b5b50919050565b7f4552433732313a20617070726f76656420717565727920666f72206e6f6e657860008201527f697374656e7420746f6b656e0000000000000000000000000000000000000000602082015250565b6000612702602c83612041565b915061270d826126a6565b604082019050919050565b60006020820190508181036000830152612731816126f5565b9050919050565b7f4552433732313a20617070726f76616c20746f2063757272656e74206f776e6560008201527f7200000000000000000000000000000000000000000000000000000000000000602082015250565b6000612794602183612041565b915061279f82612738565b604082019050919050565b600060208201905081810360008301526127c381612787565b9050919050565b7f4552433732313a20617070726f76652063616c6c6572206973206e6f74206f7760008201527f6e6572206e6f7220617070726f76656420666f7220616c6c0000000000000000602082015250565b6000612826603883612041565b9150612831826127ca565b604082019050919050565b6000602082019050818103600083015261285581612819565b9050919050565b7f4552433732313a207472616e736665722063616c6c6572206973206e6f74206f60008201527f776e6572206e6f7220617070726f766564000000000000000000000000000000602082015250565b60006128b8603183612041565b91506128c38261285c565b604082019050919050565b600060208201905081810360008301526128e7816128ab565b9050919050565b600081905092915050565b600061290482612036565b61290e81856128ee565b935061291e818560208601612052565b80840191505092915050565b600061293682846128f9565b915081905092915050565b7f4552433732313a206f776e657220717565727920666f72206e6f6e657869737460008201527f656e7420746f6b656e0000000000000000000000000000000000000000000000602082015250565b600061299d602983612041565b91506129a882612941565b604082019050919050565b600060208201905081810360008301526129cc81612990565b9050919050565b7f4552433732313a2062616c616e636520717565727920666f7220746865207a6560008201527f726f206164647265737300000000000000000000000000000000000000000000602082015250565b6000612a2f602a83612041565b9150612a3a826129d3565b604082019050919050565b60006020820190508181036000830152612a5e81612a22565b9050919050565b7f5265656e7472616e637947756172643a207265656e7472616e742063616c6c00600082015250565b6000612a9b601f83612041565b9150612aa682612a65565b602082019050919050565b60006020820190508181036000830152612aca81612a8e565b9050919050565b7f506c65617365207375626d6974207468652061736b696e67207072696365206960008201527f6e206f7264657220746f20636f6d706c65746520746865207075726368617365602082015250565b6000612b2d604083612041565b9150612b3882612ad1565b604082019050919050565b60006020820190508181036000830152612b5c81612b20565b9050919050565b6000819050919050565b6000612b88612b83612b7e8461214a565b612b63565b61214a565b9050919050565b6000612b9a82612b6d565b9050919050565b6000612bac82612b8f565b9050919050565b612bbc81612ba1565b82525050565b6000606082019050612bd76000830186612bb3565b612be4602083018561217c565b612bf16040830184611f3d565b949350505050565b7f5072696365206d75737420626520657175616c20746f206c697374696e67207060008201527f7269636500000000000000000000000000000000000000000000000000000000602082015250565b6000612c55602483612041565b9150612c6082612bf9565b604082019050919050565b60006020820190508181036000830152612c8481612c48565b9050919050565b7f4552433732314d657461646174613a2055524920717565727920666f72206e6f60008201527f6e6578697374656e7420746f6b656e0000000000000000000000000000000000602082015250565b6000612ce7602f83612041565b9150612cf282612c8b565b604082019050919050565b60006020820190508181036000830152612d1681612cda565b9050919050565b6000612d2982856128f9565b9150612d3582846128f9565b91508190509392505050565b7f4552433732313a206f70657261746f7220717565727920666f72206e6f6e657860008201527f697374656e7420746f6b656e0000000000000000000000000000000000000000602082015250565b6000612d9d602c83612041565b9150612da882612d41565b604082019050919050565b60006020820190508181036000830152612dcc81612d90565b9050919050565b7f4552433732313a207472616e736665722066726f6d20696e636f72726563742060008201527f6f776e6572000000000000000000000000000000000000000000000000000000602082015250565b6000612e2f602583612041565b9150612e3a82612dd3565b604082019050919050565b60006020820190508181036000830152612e5e81612e22565b9050919050565b7f4552433732313a207472616e7366657220746f20746865207a65726f2061646460008201527f7265737300000000000000000000000000000000000000000000000000000000602082015250565b6000612ec1602483612041565b9150612ecc82612e65565b604082019050919050565b60006020820190508181036000830152612ef081612eb4565b9050919050565b7f4e487b7100000000000000000000000000000000000000000000000000000000600052601160045260246000fd5b6000612f3182611f33565b9150612f3c83611f33565b925082821015612f4f57612f4e612ef7565b5b828203905092915050565b6000612f6582611f33565b9150612f7083611f33565b9250827fffffffffffffffffffffffffffffffffffffffffffffffffffffffffffffffff03821115612fa557612fa4612ef7565b5b828201905092915050565b7f4552433732313a206d696e7420746f20746865207a65726f2061646472657373600082015250565b6000612fe6602083612041565b9150612ff182612fb0565b602082019050919050565b6000602082019050818103600083015261301581612fd9565b9050919050565b7f4552433732313a20746f6b656e20616c7265616479206d696e74656400000000600082015250565b6000613052601c83612041565b915061305d8261301c565b602082019050919050565b6000602082019050818103600083015261308181613045565b9050919050565b7f4552433732313a20617070726f766520746f2063616c6c657200000000000000600082015250565b60006130be601983612041565b91506130c982613088565b602082019050919050565b600060208201905081810360008301526130ed816130b1565b9050919050565b7f4552433732313a207472616e7366657220746f206e6f6e20455243373231526560008201527f63656976657220696d706c656d656e7465720000000000000000000000000000602082015250565b6000613150603283612041565b915061315b826130f4565b604082019050919050565b6000602082019050818103600083015261317f81613143565b9050919050565b600061319182611f33565b91507fffffffffffffffffffffffffffffffffffffffffffffffffffffffffffffffff82036131c3576131c2612ef7565b5b600182019050919050565b7f4e487b7100000000000000000000000000000000000000000000000000000000600052601260045260246000fd5b600061320882611f33565b915061321383611f33565b925082613223576132226131ce565b5b828204905092915050565b600061323982611f33565b915061324483611f33565b925082613254576132536131ce565b5b828206905092915050565b7f4e487b7100000000000000000000000000000000000000000000000000000000600052603260045260246000fd5b600081519050919050565b600082825260208201905092915050565b60006132b58261328e565b6132bf8185613299565b93506132cf818560208601612052565b6132d881612085565b840191505092915050565b60006080820190506132f8600083018761217c565b613305602083018661217c565b6133126040830185611f3d565b818103606083015261332481846132aa565b905095945050505050565b60008151905061333e81611fa7565b92915050565b60006020828403121561335a57613359611f71565b5b60006133688482850161332f565b9150509291505056fea264697066735822122012a16e19fb3a69c56dfabc7dd16cf53579f2e5670ad87a1f42b643626f777b8e64736f6c634300080d0033",
  "immutableReferences": {},
  "source": "// SPDX-License-Identifier: MIT\npragma solidity 0.8.13;\n\nimport \"@openzeppelin/contracts/utils/Counters.sol\";\nimport \"@openzeppelin/contracts/token/ERC721/ERC721.sol\";\nimport \"@openzeppelin/contracts/security/ReentrancyGuard.sol\";\n\ncontract NFT is ERC721 {\n    mapping(uint256 => string) public colorsName;\n    mapping(string => bool) _colorExists;\n\n    using Counters for Counters.Counter;\n    Counters.Counter private tokenIds;\n\n    constructor() ERC721(\"ColorToken\", \"CT\") { }\n\n    function getTokenCount() public view returns (uint256) {\n        return tokenIds.current();\n    }\n\n    function createToken(string memory colorCode) public {\n        require(!_colorExists[colorCode]);\n\n        tokenIds.increment();\n        uint256 tokenId = tokenIds.current();\n        colorsName[tokenId] = colorCode;\n\n        _colorExists[colorCode] = true;\n\n        _mint(msg.sender, tokenId);\n    }\n}\n\ncontract NFTMarket is NFT,ReentrancyGuard {\n    using Counters for Counters.Counter;\n    Counters.Counter public itemIds;\n\n    address payable owner;\n    uint256 listingPrice = 0.025 ether;\n\n    constructor() {\n        owner = payable(msg.sender);\n    }\n\n    struct MarketItem {\n        uint256 itemId;\n        uint256 tokenId;\n        address payable seller;\n        bool sold;\n    }\n\n    mapping(uint256 => MarketItem) public idToMarketItem;\n\n    function getItemCount() public view returns (uint256) {\n        return itemIds.current();\n    }\n\n    /* Places an item for sale on the marketplace */\n    function putNFTOnSale(uint256 tokenId)\n        public\n        payable\n        nonReentrant\n    {\n        \n        require(msg.sender == ownerOf(tokenId));\n        require(msg.value == listingPrice, \"Price must be equal to listing price\");\n\n        approve(address(this), tokenId);\n\n        itemIds.increment();\n        uint256 itemId = itemIds.current();\n\n        idToMarketItem[itemId] = MarketItem(\n            itemId,\n            tokenId,\n            payable(msg.sender),\n            false\n        );\n    }\n\n    /* Creates the sale of a marketplace item */\n    /* Transfers ownership of the item, as well as funds between parties */\n    function finalizeSale(uint256 itemId)\n        public\n        payable\n        nonReentrant\n    {\n        uint256 tokenId = idToMarketItem[itemId].tokenId;\n        require(msg.sender != ownerOf(tokenId));\n        require(\n            msg.value == 1 ether,\n            \"Please submit the asking price in order to complete the purchase\"\n        );\n\n        idToMarketItem[itemId].seller.transfer(msg.value);\n        IERC721(address(this)).transferFrom(\n            idToMarketItem[itemId].seller,\n            msg.sender,\n            tokenId\n        );\n        idToMarketItem[itemId].sold = true;\n        payable(owner).transfer(listingPrice);\n    }\n}",
  "sourcePath": "/home/node/lab/NFT-Dapp/contracts/NFT.sol",
  "compiler": {
    "name": "solc",
    "version": "0.8.13+commit.abaa5c0e.Emscripten.clang"
  },
  "schemaVersion": "3.4.7",
  "updatedAt": "2022-05-03T23:49:45.510Z",
  "networkType": "ethereum",
  "devdoc": {
    "kind": "dev",
    "methods": {
      "approve(address,uint256)": {
        "details": "See {IERC721-approve}."
      },
      "balanceOf(address)": {
        "details": "See {IERC721-balanceOf}."
      },
      "getApproved(uint256)": {
        "details": "See {IERC721-getApproved}."
      },
      "isApprovedForAll(address,address)": {
        "details": "See {IERC721-isApprovedForAll}."
      },
      "name()": {
        "details": "See {IERC721Metadata-name}."
      },
      "ownerOf(uint256)": {
        "details": "See {IERC721-ownerOf}."
      },
      "safeTransferFrom(address,address,uint256)": {
        "details": "See {IERC721-safeTransferFrom}."
      },
      "safeTransferFrom(address,address,uint256,bytes)": {
        "details": "See {IERC721-safeTransferFrom}."
      },
      "setApprovalForAll(address,bool)": {
        "details": "See {IERC721-setApprovalForAll}."
      },
      "supportsInterface(bytes4)": {
        "details": "See {IERC165-supportsInterface}."
      },
      "symbol()": {
        "details": "See {IERC721Metadata-symbol}."
      },
      "tokenURI(uint256)": {
        "details": "See {IERC721Metadata-tokenURI}."
      },
      "transferFrom(address,address,uint256)": {
        "details": "See {IERC721-transferFrom}."
      }
    },
    "version": 1
  },
  "userdoc": {
    "kind": "user",
    "methods": {},
    "version": 1
  }
}