{
  "contractName": "NFT",
  "abi": [
    {
      "inputs": [],
      "stateMutability": "nonpayable",
      "type": "constructor"
    },
    {
      "anonymous": false,
      "inputs": [
        {
          "indexed": true,
          "internalType": "address",
          "name": "owner",
          "type": "address"
        },
        {
          "indexed": true,
          "internalType": "address",
          "name": "approved",
          "type": "address"
        },
        {
          "indexed": true,
          "internalType": "uint256",
          "name": "tokenId",
          "type": "uint256"
        }
      ],
      "name": "Approval",
      "type": "event"
    },
    {
      "anonymous": false,
      "inputs": [
        {
          "indexed": true,
          "internalType": "address",
          "name": "owner",
          "type": "address"
        },
        {
          "indexed": true,
          "internalType": "address",
          "name": "operator",
          "type": "address"
        },
        {
          "indexed": false,
          "internalType": "bool",
          "name": "approved",
          "type": "bool"
        }
      ],
      "name": "ApprovalForAll",
      "type": "event"
    },
    {
      "anonymous": false,
      "inputs": [
        {
          "indexed": true,
          "internalType": "address",
          "name": "from",
          "type": "address"
        },
        {
          "indexed": true,
          "internalType": "address",
          "name": "to",
          "type": "address"
        },
        {
          "indexed": true,
          "internalType": "uint256",
          "name": "tokenId",
          "type": "uint256"
        }
      ],
      "name": "Transfer",
      "type": "event"
    },
    {
      "inputs": [
        {
          "internalType": "address",
          "name": "to",
          "type": "address"
        },
        {
          "internalType": "uint256",
          "name": "tokenId",
          "type": "uint256"
        }
      ],
      "name": "approve",
      "outputs": [],
      "stateMutability": "nonpayable",
      "type": "function"
    },
    {
      "inputs": [
        {
          "internalType": "address",
          "name": "owner",
          "type": "address"
        }
      ],
      "name": "balanceOf",
      "outputs": [
        {
          "internalType": "uint256",
          "name": "",
          "type": "uint256"
        }
      ],
      "stateMutability": "view",
      "type": "function"
    },
    {
      "inputs": [
        {
          "internalType": "uint256",
          "name": "",
          "type": "uint256"
        }
      ],
      "name": "colorsName",
      "outputs": [
        {
          "internalType": "string",
          "name": "",
          "type": "string"
        }
      ],
      "stateMutability": "view",
      "type": "function"
    },
    {
      "inputs": [
        {
          "internalType": "uint256",
          "name": "tokenId",
          "type": "uint256"
        }
      ],
      "name": "getApproved",
      "outputs": [
        {
          "internalType": "address",
          "name": "",
          "type": "address"
        }
      ],
      "stateMutability": "view",
      "type": "function"
    },
    {
      "inputs": [
        {
          "internalType": "address",
          "name": "owner",
          "type": "address"
        },
        {
          "internalType": "address",
          "name": "operator",
          "type": "address"
        }
      ],
      "name": "isApprovedForAll",
      "outputs": [
        {
          "internalType": "bool",
          "name": "",
          "type": "bool"
        }
      ],
      "stateMutability": "view",
      "type": "function"
    },
    {
      "inputs": [],
      "name": "name",
      "outputs": [
        {
          "internalType": "string",
          "name": "",
          "type": "string"
        }
      ],
      "stateMutability": "view",
      "type": "function"
    },
    {
      "inputs": [
        {
          "internalType": "uint256",
          "name": "tokenId",
          "type": "uint256"
        }
      ],
      "name": "ownerOf",
      "outputs": [
        {
          "internalType": "address",
          "name": "",
          "type": "address"
        }
      ],
      "stateMutability": "view",
      "type": "function"
    },
    {
      "inputs": [
        {
          "internalType": "address",
          "name": "from",
          "type": "address"
        },
        {
          "internalType": "address",
          "name": "to",
          "type": "address"
        },
        {
          "internalType": "uint256",
          "name": "tokenId",
          "type": "uint256"
        }
      ],
      "name": "safeTransferFrom",
      "outputs": [],
      "stateMutability": "nonpayable",
      "type": "function"
    },
    {
      "inputs": [
        {
          "internalType": "address",
          "name": "from",
          "type": "address"
        },
        {
          "internalType": "address",
          "name": "to",
          "type": "address"
        },
        {
          "internalType": "uint256",
          "name": "tokenId",
          "type": "uint256"
        },
        {
          "internalType": "bytes",
          "name": "_data",
          "type": "bytes"
        }
      ],
      "name": "safeTransferFrom",
      "outputs": [],
      "stateMutability": "nonpayable",
      "type": "function"
    },
    {
      "inputs": [
        {
          "internalType": "address",
          "name": "operator",
          "type": "address"
        },
        {
          "internalType": "bool",
          "name": "approved",
          "type": "bool"
        }
      ],
      "name": "setApprovalForAll",
      "outputs": [],
      "stateMutability": "nonpayable",
      "type": "function"
    },
    {
      "inputs": [
        {
          "internalType": "bytes4",
          "name": "interfaceId",
          "type": "bytes4"
        }
      ],
      "name": "supportsInterface",
      "outputs": [
        {
          "internalType": "bool",
          "name": "",
          "type": "bool"
        }
      ],
      "stateMutability": "view",
      "type": "function"
    },
    {
      "inputs": [],
      "name": "symbol",
      "outputs": [
        {
          "internalType": "string",
          "name": "",
          "type": "string"
        }
      ],
      "stateMutability": "view",
      "type": "function"
    },
    {
      "inputs": [
        {
          "internalType": "uint256",
          "name": "tokenId",
          "type": "uint256"
        }
      ],
      "name": "tokenURI",
      "outputs": [
        {
          "internalType": "string",
          "name": "",
          "type": "string"
        }
      ],
      "stateMutability": "view",
      "type": "function"
    },
    {
      "inputs": [
        {
          "internalType": "address",
          "name": "from",
          "type": "address"
        },
        {
          "internalType": "address",
          "name": "to",
          "type": "address"
        },
        {
          "internalType": "uint256",
          "name": "tokenId",
          "type": "uint256"
        }
      ],
      "name": "transferFrom",
      "outputs": [],
      "stateMutability": "nonpayable",
      "type": "function"
    },
    {
      "inputs": [],
      "name": "getTokenCount",
      "outputs": [
        {
          "internalType": "uint256",
          "name": "",
          "type": "uint256"
        }
      ],
      "stateMutability": "view",
      "type": "function"
    },
    {
      "inputs": [
        {
          "internalType": "string",
          "name": "colorCode",
          "type": "string"
        }
      ],
      "name": "createToken",
      "outputs": [],
      "stateMutability": "nonpayable",
      "type": "function"
    }
  ],
  "bytecode": "0x60806040523480156200001157600080fd5b506040518060400160405280600a81526020017f436f6c6f72546f6b656e000000000000000000000000000000000000000000008152506040518060400160405280600281526020017f4354000000000000000000000000000000000000000000000000000000000000815250816000908051906020019062000096929190620000b8565b508060019080519060200190620000af929190620000b8565b505050620001cc565b828054620000c69062000197565b90600052602060002090601f016020900481019282620000ea576000855562000136565b82601f106200010557805160ff191683800117855562000136565b8280016001018555821562000136579182015b828111156200013557825182559160200191906001019062000118565b5b50905062000145919062000149565b5090565b5b80821115620001645760008160009055506001016200014a565b5090565b7f4e487b7100000000000000000000000000000000000000000000000000000000600052602260045260246000fd5b60006002820490506001821680620001b057607f821691505b602082108103620001c657620001c562000168565b5b50919050565b612a5680620001dc6000396000f3fe608060405234801561001057600080fd5b50600436106101005760003560e01c80636352211e11610097578063a22cb46511610066578063a22cb465146102bf578063b88d4fde146102db578063c87b56dd146102f7578063e985e9c51461032757610100565b80636352211e1461022357806370a082311461025357806378a895671461028357806395d89b41146102a157610100565b806323b872dd116100d357806323b872dd1461019f57806342842e0e146101bb578063439ee138146101d757806345576f941461020757610100565b806301ffc9a71461010557806306fdde0314610135578063081812fc14610153578063095ea7b314610183575b600080fd5b61011f600480360381019061011a91906118da565b610357565b60405161012c9190611922565b60405180910390f35b61013d610439565b60405161014a91906119d6565b60405180910390f35b61016d60048036038101906101689190611a2e565b6104cb565b60405161017a9190611a9c565b60405180910390f35b61019d60048036038101906101989190611ae3565b610550565b005b6101b960048036038101906101b49190611b23565b610667565b005b6101d560048036038101906101d09190611b23565b6106c7565b005b6101f160048036038101906101ec9190611a2e565b6106e7565b6040516101fe91906119d6565b60405180910390f35b610221600480360381019061021c9190611cab565b610787565b005b61023d60048036038101906102389190611a2e565b610842565b60405161024a9190611a9c565b60405180910390f35b61026d60048036038101906102689190611cf4565b6108f3565b60405161027a9190611d30565b60405180910390f35b61028b6109aa565b6040516102989190611d30565b60405180910390f35b6102a96109bb565b6040516102b691906119d6565b60405180910390f35b6102d960048036038101906102d49190611d77565b610a4d565b005b6102f560048036038101906102f09190611e58565b610a63565b005b610311600480360381019061030c9190611a2e565b610ac5565b60405161031e91906119d6565b60405180910390f35b610341600480360381019061033c9190611edb565b610b6c565b60405161034e9190611922565b60405180910390f35b60007f80ac58cd000000000000000000000000000000000000000000000000000000007bffffffffffffffffffffffffffffffffffffffffffffffffffffffff1916827bffffffffffffffffffffffffffffffffffffffffffffffffffffffff1916148061042257507f5b5e139f000000000000000000000000000000000000000000000000000000007bffffffffffffffffffffffffffffffffffffffffffffffffffffffff1916827bffffffffffffffffffffffffffffffffffffffffffffffffffffffff1916145b80610432575061043182610c00565b5b9050919050565b60606000805461044890611f4a565b80601f016020809104026020016040519081016040528092919081815260200182805461047490611f4a565b80156104c15780601f10610496576101008083540402835291602001916104c1565b820191906000526020600020905b8154815290600101906020018083116104a457829003601f168201915b5050505050905090565b60006104d682610c6a565b610515576040517f08c379a000000000000000000000000000000000000000000000000000000000815260040161050c90611fed565b60405180910390fd5b6004600083815260200190815260200160002060009054906101000a900473ffffffffffffffffffffffffffffffffffffffff169050919050565b600061055b82610842565b90508073ffffffffffffffffffffffffffffffffffffffff168373ffffffffffffffffffffffffffffffffffffffff16036105cb576040517f08c379a00000000000000000000000000000000000000000000000000000000081526004016105c29061207f565b60405180910390fd5b8073ffffffffffffffffffffffffffffffffffffffff166105ea610cd6565b73ffffffffffffffffffffffffffffffffffffffff161480610619575061061881610613610cd6565b610b6c565b5b610658576040517f08c379a000000000000000000000000000000000000000000000000000000000815260040161064f90612111565b60405180910390fd5b6106628383610cde565b505050565b610678610672610cd6565b82610d97565b6106b7576040517f08c379a00000000000000000000000000000000000000000000000000000000081526004016106ae906121a3565b60405180910390fd5b6106c2838383610e75565b505050565b6106e283838360405180602001604052806000815250610a63565b505050565b6006602052806000526040600020600091509050805461070690611f4a565b80601f016020809104026020016040519081016040528092919081815260200182805461073290611f4a565b801561077f5780601f106107545761010080835404028352916020019161077f565b820191906000526020600020905b81548152906001019060200180831161076257829003601f168201915b505050505081565b60078160405161079791906121ff565b908152602001604051809103902060009054906101000a900460ff16156107bd57600080fd5b6107c760086110db565b60006107d360086110f1565b9050816006600083815260200190815260200160002090805190602001906107fc9291906117cb565b50600160078360405161080f91906121ff565b908152602001604051809103902060006101000a81548160ff02191690831515021790555061083e33826110ff565b5050565b6000806002600084815260200190815260200160002060009054906101000a900473ffffffffffffffffffffffffffffffffffffffff169050600073ffffffffffffffffffffffffffffffffffffffff168173ffffffffffffffffffffffffffffffffffffffff16036108ea576040517f08c379a00000000000000000000000000000000000000000000000000000000081526004016108e190612288565b60405180910390fd5b80915050919050565b60008073ffffffffffffffffffffffffffffffffffffffff168273ffffffffffffffffffffffffffffffffffffffff1603610963576040517f08c379a000000000000000000000000000000000000000000000000000000000815260040161095a9061231a565b60405180910390fd5b600360008373ffffffffffffffffffffffffffffffffffffffff1673ffffffffffffffffffffffffffffffffffffffff168152602001908152602001600020549050919050565b60006109b660086110f1565b905090565b6060600180546109ca90611f4a565b80601f01602080910402602001604051908101604052809291908181526020018280546109f690611f4a565b8015610a435780601f10610a1857610100808354040283529160200191610a43565b820191906000526020600020905b815481529060010190602001808311610a2657829003601f168201915b5050505050905090565b610a5f610a58610cd6565b83836112d8565b5050565b610a74610a6e610cd6565b83610d97565b610ab3576040517f08c379a0000000000000000000000000000000000000000000000000000000008152600401610aaa906121a3565b60405180910390fd5b610abf84848484611444565b50505050565b6060610ad082610c6a565b610b0f576040517f08c379a0000000000000000000000000000000000000000000000000000000008152600401610b06906123ac565b60405180910390fd5b6000610b196114a0565b90506000815111610b395760405180602001604052806000815250610b64565b80610b43846114b7565b604051602001610b549291906123cc565b6040516020818303038152906040525b915050919050565b6000600560008473ffffffffffffffffffffffffffffffffffffffff1673ffffffffffffffffffffffffffffffffffffffff16815260200190815260200160002060008373ffffffffffffffffffffffffffffffffffffffff1673ffffffffffffffffffffffffffffffffffffffff16815260200190815260200160002060009054906101000a900460ff16905092915050565b60007f01ffc9a7000000000000000000000000000000000000000000000000000000007bffffffffffffffffffffffffffffffffffffffffffffffffffffffff1916827bffffffffffffffffffffffffffffffffffffffffffffffffffffffff1916149050919050565b60008073ffffffffffffffffffffffffffffffffffffffff166002600084815260200190815260200160002060009054906101000a900473ffffffffffffffffffffffffffffffffffffffff1673ffffffffffffffffffffffffffffffffffffffff1614159050919050565b600033905090565b816004600083815260200190815260200160002060006101000a81548173ffffffffffffffffffffffffffffffffffffffff021916908373ffffffffffffffffffffffffffffffffffffffff160217905550808273ffffffffffffffffffffffffffffffffffffffff16610d5183610842565b73ffffffffffffffffffffffffffffffffffffffff167f8c5be1e5ebec7d5bd14f71427d1e84f3dd0314c0f7b2291e5b200ac8c7c3b92560405160405180910390a45050565b6000610da282610c6a565b610de1576040517f08c379a0000000000000000000000000000000000000000000000000000000008152600401610dd890612462565b60405180910390fd5b6000610dec83610842565b90508073ffffffffffffffffffffffffffffffffffffffff168473ffffffffffffffffffffffffffffffffffffffff161480610e2e5750610e2d8185610b6c565b5b80610e6c57508373ffffffffffffffffffffffffffffffffffffffff16610e54846104cb565b73ffffffffffffffffffffffffffffffffffffffff16145b91505092915050565b8273ffffffffffffffffffffffffffffffffffffffff16610e9582610842565b73ffffffffffffffffffffffffffffffffffffffff1614610eeb576040517f08c379a0000000000000000000000000000000000000000000000000000000008152600401610ee2906124f4565b60405180910390fd5b600073ffffffffffffffffffffffffffffffffffffffff168273ffffffffffffffffffffffffffffffffffffffff1603610f5a576040517f08c379a0000000000000000000000000000000000000000000000000000000008152600401610f5190612586565b60405180910390fd5b610f65838383611617565b610f70600082610cde565b6001600360008573ffffffffffffffffffffffffffffffffffffffff1673ffffffffffffffffffffffffffffffffffffffff1681526020019081526020016000206000828254610fc091906125d5565b925050819055506001600360008473ffffffffffffffffffffffffffffffffffffffff1673ffffffffffffffffffffffffffffffffffffffff16815260200190815260200160002060008282546110179190612609565b92505081905550816002600083815260200190815260200160002060006101000a81548173ffffffffffffffffffffffffffffffffffffffff021916908373ffffffffffffffffffffffffffffffffffffffff160217905550808273ffffffffffffffffffffffffffffffffffffffff168473ffffffffffffffffffffffffffffffffffffffff167fddf252ad1be2c89b69c2b068fc378daa952ba7f163c4a11628f55a4df523b3ef60405160405180910390a46110d683838361161c565b505050565b6001816000016000828254019250508190555050565b600081600001549050919050565b600073ffffffffffffffffffffffffffffffffffffffff168273ffffffffffffffffffffffffffffffffffffffff160361116e576040517f08c379a0000000000000000000000000000000000000000000000000000000008152600401611165906126ab565b60405180910390fd5b61117781610c6a565b156111b7576040517f08c379a00000000000000000000000000000000000000000000000000000000081526004016111ae90612717565b60405180910390fd5b6111c360008383611617565b6001600360008473ffffffffffffffffffffffffffffffffffffffff1673ffffffffffffffffffffffffffffffffffffffff16815260200190815260200160002060008282546112139190612609565b92505081905550816002600083815260200190815260200160002060006101000a81548173ffffffffffffffffffffffffffffffffffffffff021916908373ffffffffffffffffffffffffffffffffffffffff160217905550808273ffffffffffffffffffffffffffffffffffffffff16600073ffffffffffffffffffffffffffffffffffffffff167fddf252ad1be2c89b69c2b068fc378daa952ba7f163c4a11628f55a4df523b3ef60405160405180910390a46112d46000838361161c565b5050565b8173ffffffffffffffffffffffffffffffffffffffff168373ffffffffffffffffffffffffffffffffffffffff1603611346576040517f08c379a000000000000000000000000000000000000000000000000000000000815260040161133d90612783565b60405180910390fd5b80600560008573ffffffffffffffffffffffffffffffffffffffff1673ffffffffffffffffffffffffffffffffffffffff16815260200190815260200160002060008473ffffffffffffffffffffffffffffffffffffffff1673ffffffffffffffffffffffffffffffffffffffff16815260200190815260200160002060006101000a81548160ff0219169083151502179055508173ffffffffffffffffffffffffffffffffffffffff168373ffffffffffffffffffffffffffffffffffffffff167f17307eab39ab6107e8899845ad3d59bd9653f200f220920489ca2b5937696c31836040516114379190611922565b60405180910390a3505050565b61144f848484610e75565b61145b84848484611621565b61149a576040517f08c379a000000000000000000000000000000000000000000000000000000000815260040161149190612815565b60405180910390fd5b50505050565b606060405180602001604052806000815250905090565b6060600082036114fe576040518060400160405280600181526020017f30000000000000000000000000000000000000000000000000000000000000008152509050611612565b600082905060005b6000821461153057808061151990612835565b915050600a8261152991906128ac565b9150611506565b60008167ffffffffffffffff81111561154c5761154b611b80565b5b6040519080825280601f01601f19166020018201604052801561157e5781602001600182028036833780820191505090505b5090505b6000851461160b5760018261159791906125d5565b9150600a856115a691906128dd565b60306115b29190612609565b60f81b8183815181106115c8576115c761290e565b5b60200101907effffffffffffffffffffffffffffffffffffffffffffffffffffffffffffff1916908160001a905350600a8561160491906128ac565b9450611582565b8093505050505b919050565b505050565b505050565b60006116428473ffffffffffffffffffffffffffffffffffffffff166117a8565b1561179b578373ffffffffffffffffffffffffffffffffffffffff1663150b7a0261166b610cd6565b8786866040518563ffffffff1660e01b815260040161168d9493929190612992565b6020604051808303816000875af19250505080156116c957506040513d601f19601f820116820180604052508101906116c691906129f3565b60015b61174b573d80600081146116f9576040519150601f19603f3d011682016040523d82523d6000602084013e6116fe565b606091505b506000815103611743576040517f08c379a000000000000000000000000000000000000000000000000000000000815260040161173a90612815565b60405180910390fd5b805181602001fd5b63150b7a0260e01b7bffffffffffffffffffffffffffffffffffffffffffffffffffffffff1916817bffffffffffffffffffffffffffffffffffffffffffffffffffffffff1916149150506117a0565b600190505b949350505050565b6000808273ffffffffffffffffffffffffffffffffffffffff163b119050919050565b8280546117d790611f4a565b90600052602060002090601f0160209004810192826117f95760008555611840565b82601f1061181257805160ff1916838001178555611840565b82800160010185558215611840579182015b8281111561183f578251825591602001919060010190611824565b5b50905061184d9190611851565b5090565b5b8082111561186a576000816000905550600101611852565b5090565b6000604051905090565b600080fd5b600080fd5b60007fffffffff0000000000000000000000000000000000000000000000000000000082169050919050565b6118b781611882565b81146118c257600080fd5b50565b6000813590506118d4816118ae565b92915050565b6000602082840312156118f0576118ef611878565b5b60006118fe848285016118c5565b91505092915050565b60008115159050919050565b61191c81611907565b82525050565b60006020820190506119376000830184611913565b92915050565b600081519050919050565b600082825260208201905092915050565b60005b8381101561197757808201518184015260208101905061195c565b83811115611986576000848401525b50505050565b6000601f19601f8301169050919050565b60006119a88261193d565b6119b28185611948565b93506119c2818560208601611959565b6119cb8161198c565b840191505092915050565b600060208201905081810360008301526119f0818461199d565b905092915050565b6000819050919050565b611a0b816119f8565b8114611a1657600080fd5b50565b600081359050611a2881611a02565b92915050565b600060208284031215611a4457611a43611878565b5b6000611a5284828501611a19565b91505092915050565b600073ffffffffffffffffffffffffffffffffffffffff82169050919050565b6000611a8682611a5b565b9050919050565b611a9681611a7b565b82525050565b6000602082019050611ab16000830184611a8d565b92915050565b611ac081611a7b565b8114611acb57600080fd5b50565b600081359050611add81611ab7565b92915050565b60008060408385031215611afa57611af9611878565b5b6000611b0885828601611ace565b9250506020611b1985828601611a19565b9150509250929050565b600080600060608486031215611b3c57611b3b611878565b5b6000611b4a86828701611ace565b9350506020611b5b86828701611ace565b9250506040611b6c86828701611a19565b9150509250925092565b600080fd5b600080fd5b7f4e487b7100000000000000000000000000000000000000000000000000000000600052604160045260246000fd5b611bb88261198c565b810181811067ffffffffffffffff82111715611bd757611bd6611b80565b5b80604052505050565b6000611bea61186e565b9050611bf68282611baf565b919050565b600067ffffffffffffffff821115611c1657611c15611b80565b5b611c1f8261198c565b9050602081019050919050565b82818337600083830152505050565b6000611c4e611c4984611bfb565b611be0565b905082815260208101848484011115611c6a57611c69611b7b565b5b611c75848285611c2c565b509392505050565b600082601f830112611c9257611c91611b76565b5b8135611ca2848260208601611c3b565b91505092915050565b600060208284031215611cc157611cc0611878565b5b600082013567ffffffffffffffff811115611cdf57611cde61187d565b5b611ceb84828501611c7d565b91505092915050565b600060208284031215611d0a57611d09611878565b5b6000611d1884828501611ace565b91505092915050565b611d2a816119f8565b82525050565b6000602082019050611d456000830184611d21565b92915050565b611d5481611907565b8114611d5f57600080fd5b50565b600081359050611d7181611d4b565b92915050565b60008060408385031215611d8e57611d8d611878565b5b6000611d9c85828601611ace565b9250506020611dad85828601611d62565b9150509250929050565b600067ffffffffffffffff821115611dd257611dd1611b80565b5b611ddb8261198c565b9050602081019050919050565b6000611dfb611df684611db7565b611be0565b905082815260208101848484011115611e1757611e16611b7b565b5b611e22848285611c2c565b509392505050565b600082601f830112611e3f57611e3e611b76565b5b8135611e4f848260208601611de8565b91505092915050565b60008060008060808587031215611e7257611e71611878565b5b6000611e8087828801611ace565b9450506020611e9187828801611ace565b9350506040611ea287828801611a19565b925050606085013567ffffffffffffffff811115611ec357611ec261187d565b5b611ecf87828801611e2a565b91505092959194509250565b60008060408385031215611ef257611ef1611878565b5b6000611f0085828601611ace565b9250506020611f1185828601611ace565b9150509250929050565b7f4e487b7100000000000000000000000000000000000000000000000000000000600052602260045260246000fd5b60006002820490506001821680611f6257607f821691505b602082108103611f7557611f74611f1b565b5b50919050565b7f4552433732313a20617070726f76656420717565727920666f72206e6f6e657860008201527f697374656e7420746f6b656e0000000000000000000000000000000000000000602082015250565b6000611fd7602c83611948565b9150611fe282611f7b565b604082019050919050565b6000602082019050818103600083015261200681611fca565b9050919050565b7f4552433732313a20617070726f76616c20746f2063757272656e74206f776e6560008201527f7200000000000000000000000000000000000000000000000000000000000000602082015250565b6000612069602183611948565b91506120748261200d565b604082019050919050565b600060208201905081810360008301526120988161205c565b9050919050565b7f4552433732313a20617070726f76652063616c6c6572206973206e6f74206f7760008201527f6e6572206e6f7220617070726f76656420666f7220616c6c0000000000000000602082015250565b60006120fb603883611948565b91506121068261209f565b604082019050919050565b6000602082019050818103600083015261212a816120ee565b9050919050565b7f4552433732313a207472616e736665722063616c6c6572206973206e6f74206f60008201527f776e6572206e6f7220617070726f766564000000000000000000000000000000602082015250565b600061218d603183611948565b915061219882612131565b604082019050919050565b600060208201905081810360008301526121bc81612180565b9050919050565b600081905092915050565b60006121d98261193d565b6121e381856121c3565b93506121f3818560208601611959565b80840191505092915050565b600061220b82846121ce565b915081905092915050565b7f4552433732313a206f776e657220717565727920666f72206e6f6e657869737460008201527f656e7420746f6b656e0000000000000000000000000000000000000000000000602082015250565b6000612272602983611948565b915061227d82612216565b604082019050919050565b600060208201905081810360008301526122a181612265565b9050919050565b7f4552433732313a2062616c616e636520717565727920666f7220746865207a6560008201527f726f206164647265737300000000000000000000000000000000000000000000602082015250565b6000612304602a83611948565b915061230f826122a8565b604082019050919050565b60006020820190508181036000830152612333816122f7565b9050919050565b7f4552433732314d657461646174613a2055524920717565727920666f72206e6f60008201527f6e6578697374656e7420746f6b656e0000000000000000000000000000000000602082015250565b6000612396602f83611948565b91506123a18261233a565b604082019050919050565b600060208201905081810360008301526123c581612389565b9050919050565b60006123d882856121ce565b91506123e482846121ce565b91508190509392505050565b7f4552433732313a206f70657261746f7220717565727920666f72206e6f6e657860008201527f697374656e7420746f6b656e0000000000000000000000000000000000000000602082015250565b600061244c602c83611948565b9150612457826123f0565b604082019050919050565b6000602082019050818103600083015261247b8161243f565b9050919050565b7f4552433732313a207472616e736665722066726f6d20696e636f72726563742060008201527f6f776e6572000000000000000000000000000000000000000000000000000000602082015250565b60006124de602583611948565b91506124e982612482565b604082019050919050565b6000602082019050818103600083015261250d816124d1565b9050919050565b7f4552433732313a207472616e7366657220746f20746865207a65726f2061646460008201527f7265737300000000000000000000000000000000000000000000000000000000602082015250565b6000612570602483611948565b915061257b82612514565b604082019050919050565b6000602082019050818103600083015261259f81612563565b9050919050565b7f4e487b7100000000000000000000000000000000000000000000000000000000600052601160045260246000fd5b60006125e0826119f8565b91506125eb836119f8565b9250828210156125fe576125fd6125a6565b5b828203905092915050565b6000612614826119f8565b915061261f836119f8565b9250827fffffffffffffffffffffffffffffffffffffffffffffffffffffffffffffffff03821115612654576126536125a6565b5b828201905092915050565b7f4552433732313a206d696e7420746f20746865207a65726f2061646472657373600082015250565b6000612695602083611948565b91506126a08261265f565b602082019050919050565b600060208201905081810360008301526126c481612688565b9050919050565b7f4552433732313a20746f6b656e20616c7265616479206d696e74656400000000600082015250565b6000612701601c83611948565b915061270c826126cb565b602082019050919050565b60006020820190508181036000830152612730816126f4565b9050919050565b7f4552433732313a20617070726f766520746f2063616c6c657200000000000000600082015250565b600061276d601983611948565b915061277882612737565b602082019050919050565b6000602082019050818103600083015261279c81612760565b9050919050565b7f4552433732313a207472616e7366657220746f206e6f6e20455243373231526560008201527f63656976657220696d706c656d656e7465720000000000000000000000000000602082015250565b60006127ff603283611948565b915061280a826127a3565b604082019050919050565b6000602082019050818103600083015261282e816127f2565b9050919050565b6000612840826119f8565b91507fffffffffffffffffffffffffffffffffffffffffffffffffffffffffffffffff8203612872576128716125a6565b5b600182019050919050565b7f4e487b7100000000000000000000000000000000000000000000000000000000600052601260045260246000fd5b60006128b7826119f8565b91506128c2836119f8565b9250826128d2576128d161287d565b5b828204905092915050565b60006128e8826119f8565b91506128f3836119f8565b9250826129035761290261287d565b5b828206905092915050565b7f4e487b7100000000000000000000000000000000000000000000000000000000600052603260045260246000fd5b600081519050919050565b600082825260208201905092915050565b60006129648261293d565b61296e8185612948565b935061297e818560208601611959565b6129878161198c565b840191505092915050565b60006080820190506129a76000830187611a8d565b6129b46020830186611a8d565b6129c16040830185611d21565b81810360608301526129d38184612959565b905095945050505050565b6000815190506129ed816118ae565b92915050565b600060208284031215612a0957612a08611878565b5b6000612a17848285016129de565b9150509291505056fea2646970667358221220d117072050ca8bf6e241d86269df7059d629768cf479a7b38a60f3c859ed1b8e64736f6c634300080d0033",
  "immutableReferences": {},
  "source": "// SPDX-License-Identifier: MIT\npragma solidity 0.8.13;\n\nimport \"@openzeppelin/contracts/utils/Counters.sol\";\nimport \"@openzeppelin/contracts/token/ERC721/ERC721.sol\";\nimport \"@openzeppelin/contracts/security/ReentrancyGuard.sol\";\n\ncontract NFT is ERC721 {\n    mapping(uint256 => string) public colorsName;\n    mapping(string => bool) _colorExists;\n\n    using Counters for Counters.Counter;\n    Counters.Counter private tokenIds;\n\n    constructor() ERC721(\"ColorToken\", \"CT\") { }\n\n    function getTokenCount() public view returns (uint256) {\n        return tokenIds.current();\n    }\n\n    function createToken(string memory colorCode) public {\n        require(!_colorExists[colorCode]);\n\n        tokenIds.increment();\n        uint256 tokenId = tokenIds.current();\n        colorsName[tokenId] = colorCode;\n\n        _colorExists[colorCode] = true;\n\n        _mint(msg.sender, tokenId);\n    }\n}\n\ncontract NFTMarket is NFT,ReentrancyGuard {\n    using Counters for Counters.Counter;\n    Counters.Counter public itemIds;\n\n    address payable owner;\n    uint256 listingPrice = 0.025 ether;\n\n    constructor() {\n        owner = payable(msg.sender);\n    }\n\n    struct MarketItem {\n        uint256 itemId;\n        uint256 tokenId;\n        address payable seller;\n        bool sold;\n    }\n\n    mapping(uint256 => MarketItem) public idToMarketItem;\n\n    function getItemCount() public view returns (uint256) {\n        return itemIds.current();\n    }\n\n    /* Places an item for sale on the marketplace */\n    function putNFTOnSale(uint256 tokenId)\n        public\n        payable\n        nonReentrant\n    {\n        \n        require(msg.sender == ownerOf(tokenId));\n        require(msg.value == listingPrice, \"Price must be equal to listing price\");\n\n        approve(address(this), tokenId);\n\n        itemIds.increment();\n        uint256 itemId = itemIds.current();\n\n        idToMarketItem[itemId] = MarketItem(\n            itemId,\n            tokenId,\n            payable(msg.sender),\n            false\n        );\n    }\n\n    /* Creates the sale of a marketplace item */\n    /* Transfers ownership of the item, as well as funds between parties */\n    function finalizeSale(uint256 itemId)\n        public\n        payable\n        nonReentrant\n    {\n        uint256 tokenId = idToMarketItem[itemId].tokenId;\n        require(msg.sender != ownerOf(tokenId));\n        require(\n            msg.value == 1 ether,\n            \"Please submit the asking price in order to complete the purchase\"\n        );\n\n        idToMarketItem[itemId].seller.transfer(msg.value);\n        transferFrom(\n            idToMarketItem[itemId].seller,\n            msg.sender,\n            tokenId\n        );\n        idToMarketItem[itemId].sold = true;\n        payable(owner).transfer(listingPrice);\n    }\n}",
  "sourcePath": "/home/node/lab/NFT/contracts/NFT.sol",
  "compiler": {
    "name": "solc",
    "version": "0.8.13+commit.abaa5c0e.Emscripten.clang"
  },
  "schemaVersion": "3.4.7",
  "updatedAt": "2022-05-03T21:14:37.215Z",
  "devdoc": {
    "kind": "dev",
    "methods": {
      "approve(address,uint256)": {
        "details": "See {IERC721-approve}."
      },
      "balanceOf(address)": {
        "details": "See {IERC721-balanceOf}."
      },
      "getApproved(uint256)": {
        "details": "See {IERC721-getApproved}."
      },
      "isApprovedForAll(address,address)": {
        "details": "See {IERC721-isApprovedForAll}."
      },
      "name()": {
        "details": "See {IERC721Metadata-name}."
      },
      "ownerOf(uint256)": {
        "details": "See {IERC721-ownerOf}."
      },
      "safeTransferFrom(address,address,uint256)": {
        "details": "See {IERC721-safeTransferFrom}."
      },
      "safeTransferFrom(address,address,uint256,bytes)": {
        "details": "See {IERC721-safeTransferFrom}."
      },
      "setApprovalForAll(address,bool)": {
        "details": "See {IERC721-setApprovalForAll}."
      },
      "supportsInterface(bytes4)": {
        "details": "See {IERC165-supportsInterface}."
      },
      "symbol()": {
        "details": "See {IERC721Metadata-symbol}."
      },
      "tokenURI(uint256)": {
        "details": "See {IERC721Metadata-tokenURI}."
      },
      "transferFrom(address,address,uint256)": {
        "details": "See {IERC721-transferFrom}."
      }
    },
    "version": 1
  },
  "userdoc": {
    "kind": "user",
    "methods": {},
    "version": 1
  }
}