{
  "contractName": "NFTMarket",
  "abi": [
    {
      "inputs": [],
      "stateMutability": "nonpayable",
      "type": "constructor"
    },
    {
      "anonymous": false,
      "inputs": [
        {
          "indexed": true,
          "internalType": "address",
          "name": "owner",
          "type": "address"
        },
        {
          "indexed": true,
          "internalType": "address",
          "name": "approved",
          "type": "address"
        },
        {
          "indexed": true,
          "internalType": "uint256",
          "name": "tokenId",
          "type": "uint256"
        }
      ],
      "name": "Approval",
      "type": "event"
    },
    {
      "anonymous": false,
      "inputs": [
        {
          "indexed": true,
          "internalType": "address",
          "name": "owner",
          "type": "address"
        },
        {
          "indexed": true,
          "internalType": "address",
          "name": "operator",
          "type": "address"
        },
        {
          "indexed": false,
          "internalType": "bool",
          "name": "approved",
          "type": "bool"
        }
      ],
      "name": "ApprovalForAll",
      "type": "event"
    },
    {
      "anonymous": false,
      "inputs": [
        {
          "indexed": true,
          "internalType": "address",
          "name": "from",
          "type": "address"
        },
        {
          "indexed": true,
          "internalType": "address",
          "name": "to",
          "type": "address"
        },
        {
          "indexed": true,
          "internalType": "uint256",
          "name": "tokenId",
          "type": "uint256"
        }
      ],
      "name": "Transfer",
      "type": "event"
    },
    {
      "inputs": [
        {
          "internalType": "address",
          "name": "to",
          "type": "address"
        },
        {
          "internalType": "uint256",
          "name": "tokenId",
          "type": "uint256"
        }
      ],
      "name": "approve",
      "outputs": [],
      "stateMutability": "nonpayable",
      "type": "function"
    },
    {
      "inputs": [
        {
          "internalType": "address",
          "name": "owner",
          "type": "address"
        }
      ],
      "name": "balanceOf",
      "outputs": [
        {
          "internalType": "uint256",
          "name": "",
          "type": "uint256"
        }
      ],
      "stateMutability": "view",
      "type": "function"
    },
    {
      "inputs": [
        {
          "internalType": "uint256",
          "name": "",
          "type": "uint256"
        }
      ],
      "name": "colorsName",
      "outputs": [
        {
          "internalType": "string",
          "name": "",
          "type": "string"
        }
      ],
      "stateMutability": "view",
      "type": "function"
    },
    {
      "inputs": [
        {
          "internalType": "string",
          "name": "colorCode",
          "type": "string"
        }
      ],
      "name": "createToken",
      "outputs": [],
      "stateMutability": "nonpayable",
      "type": "function"
    },
    {
      "inputs": [
        {
          "internalType": "uint256",
          "name": "tokenId",
          "type": "uint256"
        }
      ],
      "name": "getApproved",
      "outputs": [
        {
          "internalType": "address",
          "name": "",
          "type": "address"
        }
      ],
      "stateMutability": "view",
      "type": "function"
    },
    {
      "inputs": [],
      "name": "getTokenCount",
      "outputs": [
        {
          "internalType": "uint256",
          "name": "",
          "type": "uint256"
        }
      ],
      "stateMutability": "view",
      "type": "function"
    },
    {
      "inputs": [
        {
          "internalType": "uint256",
          "name": "",
          "type": "uint256"
        }
      ],
      "name": "idToMarketItem",
      "outputs": [
        {
          "internalType": "uint256",
          "name": "itemId",
          "type": "uint256"
        },
        {
          "internalType": "uint256",
          "name": "tokenId",
          "type": "uint256"
        },
        {
          "internalType": "address payable",
          "name": "seller",
          "type": "address"
        },
        {
          "internalType": "bool",
          "name": "sold",
          "type": "bool"
        }
      ],
      "stateMutability": "view",
      "type": "function"
    },
    {
      "inputs": [
        {
          "internalType": "address",
          "name": "owner",
          "type": "address"
        },
        {
          "internalType": "address",
          "name": "operator",
          "type": "address"
        }
      ],
      "name": "isApprovedForAll",
      "outputs": [
        {
          "internalType": "bool",
          "name": "",
          "type": "bool"
        }
      ],
      "stateMutability": "view",
      "type": "function"
    },
    {
      "inputs": [],
      "name": "itemIds",
      "outputs": [
        {
          "internalType": "uint256",
          "name": "_value",
          "type": "uint256"
        }
      ],
      "stateMutability": "view",
      "type": "function"
    },
    {
      "inputs": [],
      "name": "name",
      "outputs": [
        {
          "internalType": "string",
          "name": "",
          "type": "string"
        }
      ],
      "stateMutability": "view",
      "type": "function"
    },
    {
      "inputs": [
        {
          "internalType": "uint256",
          "name": "tokenId",
          "type": "uint256"
        }
      ],
      "name": "ownerOf",
      "outputs": [
        {
          "internalType": "address",
          "name": "",
          "type": "address"
        }
      ],
      "stateMutability": "view",
      "type": "function"
    },
    {
      "inputs": [
        {
          "internalType": "address",
          "name": "from",
          "type": "address"
        },
        {
          "internalType": "address",
          "name": "to",
          "type": "address"
        },
        {
          "internalType": "uint256",
          "name": "tokenId",
          "type": "uint256"
        }
      ],
      "name": "safeTransferFrom",
      "outputs": [],
      "stateMutability": "nonpayable",
      "type": "function"
    },
    {
      "inputs": [
        {
          "internalType": "address",
          "name": "from",
          "type": "address"
        },
        {
          "internalType": "address",
          "name": "to",
          "type": "address"
        },
        {
          "internalType": "uint256",
          "name": "tokenId",
          "type": "uint256"
        },
        {
          "internalType": "bytes",
          "name": "_data",
          "type": "bytes"
        }
      ],
      "name": "safeTransferFrom",
      "outputs": [],
      "stateMutability": "nonpayable",
      "type": "function"
    },
    {
      "inputs": [
        {
          "internalType": "address",
          "name": "operator",
          "type": "address"
        },
        {
          "internalType": "bool",
          "name": "approved",
          "type": "bool"
        }
      ],
      "name": "setApprovalForAll",
      "outputs": [],
      "stateMutability": "nonpayable",
      "type": "function"
    },
    {
      "inputs": [
        {
          "internalType": "bytes4",
          "name": "interfaceId",
          "type": "bytes4"
        }
      ],
      "name": "supportsInterface",
      "outputs": [
        {
          "internalType": "bool",
          "name": "",
          "type": "bool"
        }
      ],
      "stateMutability": "view",
      "type": "function"
    },
    {
      "inputs": [],
      "name": "symbol",
      "outputs": [
        {
          "internalType": "string",
          "name": "",
          "type": "string"
        }
      ],
      "stateMutability": "view",
      "type": "function"
    },
    {
      "inputs": [
        {
          "internalType": "uint256",
          "name": "tokenId",
          "type": "uint256"
        }
      ],
      "name": "tokenURI",
      "outputs": [
        {
          "internalType": "string",
          "name": "",
          "type": "string"
        }
      ],
      "stateMutability": "view",
      "type": "function"
    },
    {
      "inputs": [
        {
          "internalType": "address",
          "name": "from",
          "type": "address"
        },
        {
          "internalType": "address",
          "name": "to",
          "type": "address"
        },
        {
          "internalType": "uint256",
          "name": "tokenId",
          "type": "uint256"
        }
      ],
      "name": "transferFrom",
      "outputs": [],
      "stateMutability": "nonpayable",
      "type": "function"
    },
    {
      "inputs": [],
      "name": "getItemCount",
      "outputs": [
        {
          "internalType": "uint256",
          "name": "",
          "type": "uint256"
        }
      ],
      "stateMutability": "view",
      "type": "function"
    },
    {
      "inputs": [
        {
          "internalType": "uint256",
          "name": "tokenId",
          "type": "uint256"
        }
      ],
      "name": "putNFTOnSale",
      "outputs": [],
      "stateMutability": "payable",
      "type": "function"
    },
    {
      "inputs": [
        {
          "internalType": "uint256",
          "name": "itemId",
          "type": "uint256"
        }
      ],
      "name": "finalizeSale",
      "outputs": [],
      "stateMutability": "payable",
      "type": "function"
    }
  ],
  "bytecode": "0x60806040526658d15e17628000600c553480156200001c57600080fd5b506040518060400160405280600a81526020017f436f6c6f72546f6b656e000000000000000000000000000000000000000000008152506040518060400160405280600281526020017f43540000000000000000000000000000000000000000000000000000000000008152508160009080519060200190620000a19291906200010c565b508060019080519060200190620000ba9291906200010c565b505050600160098190555033600b60006101000a81548173ffffffffffffffffffffffffffffffffffffffff021916908373ffffffffffffffffffffffffffffffffffffffff16021790555062000220565b8280546200011a90620001eb565b90600052602060002090601f0160209004810192826200013e57600085556200018a565b82601f106200015957805160ff19168380011785556200018a565b828001600101855582156200018a579182015b82811115620001895782518255916020019190600101906200016c565b5b5090506200019991906200019d565b5090565b5b80821115620001b85760008160009055506001016200019e565b5090565b7f4e487b7100000000000000000000000000000000000000000000000000000000600052602260045260246000fd5b600060028204905060018216806200020457607f821691505b6020821081036200021a5762000219620001bc565b5b50919050565b6132ad80620002306000396000f3fe6080604052600436106101295760003560e01c806370a08231116100ab578063aa9293801161006f578063aa92938014610403578063b541eb891461041f578063b88d4fde1461043b578063c87b56dd14610464578063e61a70c0146104a1578063e985e9c5146104e157610129565b806370a082311461031c5780637749cf231461035957806378a895671461038457806395d89b41146103af578063a22cb465146103da57610129565b806323b872dd116100f257806323b872dd1461022757806342842e0e14610250578063439ee1381461027957806345576f94146102b65780636352211e146102df57610129565b8062b921cb1461012e57806301ffc9a71461015957806306fdde0314610196578063081812fc146101c1578063095ea7b3146101fe575b600080fd5b34801561013a57600080fd5b5061014361051e565b6040516101509190611ee8565b60405180910390f35b34801561016557600080fd5b50610180600480360381019061017b9190611f6f565b61052a565b60405161018d9190611fb7565b60405180910390f35b3480156101a257600080fd5b506101ab61060c565b6040516101b8919061206b565b60405180910390f35b3480156101cd57600080fd5b506101e860048036038101906101e391906120b9565b61069e565b6040516101f59190612127565b60405180910390f35b34801561020a57600080fd5b506102256004803603810190610220919061216e565b610723565b005b34801561023357600080fd5b5061024e600480360381019061024991906121ae565b61083a565b005b34801561025c57600080fd5b50610277600480360381019061027291906121ae565b61089a565b005b34801561028557600080fd5b506102a0600480360381019061029b91906120b9565b6108ba565b6040516102ad919061206b565b60405180910390f35b3480156102c257600080fd5b506102dd60048036038101906102d89190612336565b61095a565b005b3480156102eb57600080fd5b50610306600480360381019061030191906120b9565b610a15565b6040516103139190612127565b60405180910390f35b34801561032857600080fd5b50610343600480360381019061033e919061237f565b610ac6565b6040516103509190611ee8565b60405180910390f35b34801561036557600080fd5b5061036e610b7d565b60405161037b9190611ee8565b60405180910390f35b34801561039057600080fd5b50610399610b8e565b6040516103a69190611ee8565b60405180910390f35b3480156103bb57600080fd5b506103c4610b9f565b6040516103d1919061206b565b60405180910390f35b3480156103e657600080fd5b5061040160048036038101906103fc91906123d8565b610c31565b005b61041d600480360381019061041891906120b9565b610c47565b005b610439600480360381019061043491906120b9565b610e9d565b005b34801561044757600080fd5b50610462600480360381019061045d91906124b9565b611067565b005b34801561047057600080fd5b5061048b600480360381019061048691906120b9565b6110c9565b604051610498919061206b565b60405180910390f35b3480156104ad57600080fd5b506104c860048036038101906104c391906120b9565b611170565b6040516104d8949392919061255d565b60405180910390f35b3480156104ed57600080fd5b50610508600480360381019061050391906125a2565b6111cd565b6040516105159190611fb7565b60405180910390f35b600a8060000154905081565b60007f80ac58cd000000000000000000000000000000000000000000000000000000007bffffffffffffffffffffffffffffffffffffffffffffffffffffffff1916827bffffffffffffffffffffffffffffffffffffffffffffffffffffffff191614806105f557507f5b5e139f000000000000000000000000000000000000000000000000000000007bffffffffffffffffffffffffffffffffffffffffffffffffffffffff1916827bffffffffffffffffffffffffffffffffffffffffffffffffffffffff1916145b80610605575061060482611261565b5b9050919050565b60606000805461061b90612611565b80601f016020809104026020016040519081016040528092919081815260200182805461064790612611565b80156106945780601f1061066957610100808354040283529160200191610694565b820191906000526020600020905b81548152906001019060200180831161067757829003601f168201915b5050505050905090565b60006106a9826112cb565b6106e8576040517f08c379a00000000000000000000000000000000000000000000000000000000081526004016106df906126b4565b60405180910390fd5b6004600083815260200190815260200160002060009054906101000a900473ffffffffffffffffffffffffffffffffffffffff169050919050565b600061072e82610a15565b90508073ffffffffffffffffffffffffffffffffffffffff168373ffffffffffffffffffffffffffffffffffffffff160361079e576040517f08c379a000000000000000000000000000000000000000000000000000000000815260040161079590612746565b60405180910390fd5b8073ffffffffffffffffffffffffffffffffffffffff166107bd611337565b73ffffffffffffffffffffffffffffffffffffffff1614806107ec57506107eb816107e6611337565b6111cd565b5b61082b576040517f08c379a0000000000000000000000000000000000000000000000000000000008152600401610822906127d8565b60405180910390fd5b610835838361133f565b505050565b61084b610845611337565b826113f8565b61088a576040517f08c379a00000000000000000000000000000000000000000000000000000000081526004016108819061286a565b60405180910390fd5b6108958383836114d6565b505050565b6108b583838360405180602001604052806000815250611067565b505050565b600660205280600052604060002060009150905080546108d990612611565b80601f016020809104026020016040519081016040528092919081815260200182805461090590612611565b80156109525780601f1061092757610100808354040283529160200191610952565b820191906000526020600020905b81548152906001019060200180831161093557829003601f168201915b505050505081565b60078160405161096a91906128c6565b908152602001604051809103902060009054906101000a900460ff161561099057600080fd5b61099a600861173c565b60006109a66008611752565b9050816006600083815260200190815260200160002090805190602001906109cf929190611e2c565b5060016007836040516109e291906128c6565b908152602001604051809103902060006101000a81548160ff021916908315150217905550610a113382611760565b5050565b6000806002600084815260200190815260200160002060009054906101000a900473ffffffffffffffffffffffffffffffffffffffff169050600073ffffffffffffffffffffffffffffffffffffffff168173ffffffffffffffffffffffffffffffffffffffff1603610abd576040517f08c379a0000000000000000000000000000000000000000000000000000000008152600401610ab49061294f565b60405180910390fd5b80915050919050565b60008073ffffffffffffffffffffffffffffffffffffffff168273ffffffffffffffffffffffffffffffffffffffff1603610b36576040517f08c379a0000000000000000000000000000000000000000000000000000000008152600401610b2d906129e1565b60405180910390fd5b600360008373ffffffffffffffffffffffffffffffffffffffff1673ffffffffffffffffffffffffffffffffffffffff168152602001908152602001600020549050919050565b6000610b89600a611752565b905090565b6000610b9a6008611752565b905090565b606060018054610bae90612611565b80601f0160208091040260200160405190810160405280929190818152602001828054610bda90612611565b8015610c275780601f10610bfc57610100808354040283529160200191610c27565b820191906000526020600020905b815481529060010190602001808311610c0a57829003601f168201915b5050505050905090565b610c43610c3c611337565b8383611939565b5050565b600260095403610c8c576040517f08c379a0000000000000000000000000000000000000000000000000000000008152600401610c8390612a4d565b60405180910390fd5b60026009819055506000600d6000838152602001908152602001600020600101549050610cb881610a15565b73ffffffffffffffffffffffffffffffffffffffff163373ffffffffffffffffffffffffffffffffffffffff1603610cef57600080fd5b670de0b6b3a76400003414610d39576040517f08c379a0000000000000000000000000000000000000000000000000000000008152600401610d3090612adf565b60405180910390fd5b600d600083815260200190815260200160002060020160009054906101000a900473ffffffffffffffffffffffffffffffffffffffff1673ffffffffffffffffffffffffffffffffffffffff166108fc349081150290604051600060405180830381858888f19350505050158015610db5573d6000803e3d6000fd5b50610df7600d600084815260200190815260200160002060020160009054906101000a900473ffffffffffffffffffffffffffffffffffffffff16338361083a565b6001600d600084815260200190815260200160002060020160146101000a81548160ff021916908315150217905550600b60009054906101000a900473ffffffffffffffffffffffffffffffffffffffff1673ffffffffffffffffffffffffffffffffffffffff166108fc600c549081150290604051600060405180830381858888f19350505050158015610e90573d6000803e3d6000fd5b5050600160098190555050565b600260095403610ee2576040517f08c379a0000000000000000000000000000000000000000000000000000000008152600401610ed990612a4d565b60405180910390fd5b6002600981905550610ef381610a15565b73ffffffffffffffffffffffffffffffffffffffff163373ffffffffffffffffffffffffffffffffffffffff1614610f2a57600080fd5b600c543414610f6e576040517f08c379a0000000000000000000000000000000000000000000000000000000008152600401610f6590612b71565b60405180910390fd5b610f783082610723565b610f82600a61173c565b6000610f8e600a611752565b905060405180608001604052808281526020018381526020013373ffffffffffffffffffffffffffffffffffffffff16815260200160001515815250600d6000838152602001908152602001600020600082015181600001556020820151816001015560408201518160020160006101000a81548173ffffffffffffffffffffffffffffffffffffffff021916908373ffffffffffffffffffffffffffffffffffffffff16021790555060608201518160020160146101000a81548160ff02191690831515021790555090505050600160098190555050565b611078611072611337565b836113f8565b6110b7576040517f08c379a00000000000000000000000000000000000000000000000000000000081526004016110ae9061286a565b60405180910390fd5b6110c384848484611aa5565b50505050565b60606110d4826112cb565b611113576040517f08c379a000000000000000000000000000000000000000000000000000000000815260040161110a90612c03565b60405180910390fd5b600061111d611b01565b9050600081511161113d5760405180602001604052806000815250611168565b8061114784611b18565b604051602001611158929190612c23565b6040516020818303038152906040525b915050919050565b600d6020528060005260406000206000915090508060000154908060010154908060020160009054906101000a900473ffffffffffffffffffffffffffffffffffffffff16908060020160149054906101000a900460ff16905084565b6000600560008473ffffffffffffffffffffffffffffffffffffffff1673ffffffffffffffffffffffffffffffffffffffff16815260200190815260200160002060008373ffffffffffffffffffffffffffffffffffffffff1673ffffffffffffffffffffffffffffffffffffffff16815260200190815260200160002060009054906101000a900460ff16905092915050565b60007f01ffc9a7000000000000000000000000000000000000000000000000000000007bffffffffffffffffffffffffffffffffffffffffffffffffffffffff1916827bffffffffffffffffffffffffffffffffffffffffffffffffffffffff1916149050919050565b60008073ffffffffffffffffffffffffffffffffffffffff166002600084815260200190815260200160002060009054906101000a900473ffffffffffffffffffffffffffffffffffffffff1673ffffffffffffffffffffffffffffffffffffffff1614159050919050565b600033905090565b816004600083815260200190815260200160002060006101000a81548173ffffffffffffffffffffffffffffffffffffffff021916908373ffffffffffffffffffffffffffffffffffffffff160217905550808273ffffffffffffffffffffffffffffffffffffffff166113b283610a15565b73ffffffffffffffffffffffffffffffffffffffff167f8c5be1e5ebec7d5bd14f71427d1e84f3dd0314c0f7b2291e5b200ac8c7c3b92560405160405180910390a45050565b6000611403826112cb565b611442576040517f08c379a000000000000000000000000000000000000000000000000000000000815260040161143990612cb9565b60405180910390fd5b600061144d83610a15565b90508073ffffffffffffffffffffffffffffffffffffffff168473ffffffffffffffffffffffffffffffffffffffff16148061148f575061148e81856111cd565b5b806114cd57508373ffffffffffffffffffffffffffffffffffffffff166114b58461069e565b73ffffffffffffffffffffffffffffffffffffffff16145b91505092915050565b8273ffffffffffffffffffffffffffffffffffffffff166114f682610a15565b73ffffffffffffffffffffffffffffffffffffffff161461154c576040517f08c379a000000000000000000000000000000000000000000000000000000000815260040161154390612d4b565b60405180910390fd5b600073ffffffffffffffffffffffffffffffffffffffff168273ffffffffffffffffffffffffffffffffffffffff16036115bb576040517f08c379a00000000000000000000000000000000000000000000000000000000081526004016115b290612ddd565b60405180910390fd5b6115c6838383611c78565b6115d160008261133f565b6001600360008573ffffffffffffffffffffffffffffffffffffffff1673ffffffffffffffffffffffffffffffffffffffff16815260200190815260200160002060008282546116219190612e2c565b925050819055506001600360008473ffffffffffffffffffffffffffffffffffffffff1673ffffffffffffffffffffffffffffffffffffffff16815260200190815260200160002060008282546116789190612e60565b92505081905550816002600083815260200190815260200160002060006101000a81548173ffffffffffffffffffffffffffffffffffffffff021916908373ffffffffffffffffffffffffffffffffffffffff160217905550808273ffffffffffffffffffffffffffffffffffffffff168473ffffffffffffffffffffffffffffffffffffffff167fddf252ad1be2c89b69c2b068fc378daa952ba7f163c4a11628f55a4df523b3ef60405160405180910390a4611737838383611c7d565b505050565b6001816000016000828254019250508190555050565b600081600001549050919050565b600073ffffffffffffffffffffffffffffffffffffffff168273ffffffffffffffffffffffffffffffffffffffff16036117cf576040517f08c379a00000000000000000000000000000000000000000000000000000000081526004016117c690612f02565b60405180910390fd5b6117d8816112cb565b15611818576040517f08c379a000000000000000000000000000000000000000000000000000000000815260040161180f90612f6e565b60405180910390fd5b61182460008383611c78565b6001600360008473ffffffffffffffffffffffffffffffffffffffff1673ffffffffffffffffffffffffffffffffffffffff16815260200190815260200160002060008282546118749190612e60565b92505081905550816002600083815260200190815260200160002060006101000a81548173ffffffffffffffffffffffffffffffffffffffff021916908373ffffffffffffffffffffffffffffffffffffffff160217905550808273ffffffffffffffffffffffffffffffffffffffff16600073ffffffffffffffffffffffffffffffffffffffff167fddf252ad1be2c89b69c2b068fc378daa952ba7f163c4a11628f55a4df523b3ef60405160405180910390a461193560008383611c7d565b5050565b8173ffffffffffffffffffffffffffffffffffffffff168373ffffffffffffffffffffffffffffffffffffffff16036119a7576040517f08c379a000000000000000000000000000000000000000000000000000000000815260040161199e90612fda565b60405180910390fd5b80600560008573ffffffffffffffffffffffffffffffffffffffff1673ffffffffffffffffffffffffffffffffffffffff16815260200190815260200160002060008473ffffffffffffffffffffffffffffffffffffffff1673ffffffffffffffffffffffffffffffffffffffff16815260200190815260200160002060006101000a81548160ff0219169083151502179055508173ffffffffffffffffffffffffffffffffffffffff168373ffffffffffffffffffffffffffffffffffffffff167f17307eab39ab6107e8899845ad3d59bd9653f200f220920489ca2b5937696c3183604051611a989190611fb7565b60405180910390a3505050565b611ab08484846114d6565b611abc84848484611c82565b611afb576040517f08c379a0000000000000000000000000000000000000000000000000000000008152600401611af29061306c565b60405180910390fd5b50505050565b606060405180602001604052806000815250905090565b606060008203611b5f576040518060400160405280600181526020017f30000000000000000000000000000000000000000000000000000000000000008152509050611c73565b600082905060005b60008214611b91578080611b7a9061308c565b915050600a82611b8a9190613103565b9150611b67565b60008167ffffffffffffffff811115611bad57611bac61220b565b5b6040519080825280601f01601f191660200182016040528015611bdf5781602001600182028036833780820191505090505b5090505b60008514611c6c57600182611bf89190612e2c565b9150600a85611c079190613134565b6030611c139190612e60565b60f81b818381518110611c2957611c28613165565b5b60200101907effffffffffffffffffffffffffffffffffffffffffffffffffffffffffffff1916908160001a905350600a85611c659190613103565b9450611be3565b8093505050505b919050565b505050565b505050565b6000611ca38473ffffffffffffffffffffffffffffffffffffffff16611e09565b15611dfc578373ffffffffffffffffffffffffffffffffffffffff1663150b7a02611ccc611337565b8786866040518563ffffffff1660e01b8152600401611cee94939291906131e9565b6020604051808303816000875af1925050508015611d2a57506040513d601f19601f82011682018060405250810190611d27919061324a565b60015b611dac573d8060008114611d5a576040519150601f19603f3d011682016040523d82523d6000602084013e611d5f565b606091505b506000815103611da4576040517f08c379a0000000000000000000000000000000000000000000000000000000008152600401611d9b9061306c565b60405180910390fd5b805181602001fd5b63150b7a0260e01b7bffffffffffffffffffffffffffffffffffffffffffffffffffffffff1916817bffffffffffffffffffffffffffffffffffffffffffffffffffffffff191614915050611e01565b600190505b949350505050565b6000808273ffffffffffffffffffffffffffffffffffffffff163b119050919050565b828054611e3890612611565b90600052602060002090601f016020900481019282611e5a5760008555611ea1565b82601f10611e7357805160ff1916838001178555611ea1565b82800160010185558215611ea1579182015b82811115611ea0578251825591602001919060010190611e85565b5b509050611eae9190611eb2565b5090565b5b80821115611ecb576000816000905550600101611eb3565b5090565b6000819050919050565b611ee281611ecf565b82525050565b6000602082019050611efd6000830184611ed9565b92915050565b6000604051905090565b600080fd5b600080fd5b60007fffffffff0000000000000000000000000000000000000000000000000000000082169050919050565b611f4c81611f17565b8114611f5757600080fd5b50565b600081359050611f6981611f43565b92915050565b600060208284031215611f8557611f84611f0d565b5b6000611f9384828501611f5a565b91505092915050565b60008115159050919050565b611fb181611f9c565b82525050565b6000602082019050611fcc6000830184611fa8565b92915050565b600081519050919050565b600082825260208201905092915050565b60005b8381101561200c578082015181840152602081019050611ff1565b8381111561201b576000848401525b50505050565b6000601f19601f8301169050919050565b600061203d82611fd2565b6120478185611fdd565b9350612057818560208601611fee565b61206081612021565b840191505092915050565b600060208201905081810360008301526120858184612032565b905092915050565b61209681611ecf565b81146120a157600080fd5b50565b6000813590506120b38161208d565b92915050565b6000602082840312156120cf576120ce611f0d565b5b60006120dd848285016120a4565b91505092915050565b600073ffffffffffffffffffffffffffffffffffffffff82169050919050565b6000612111826120e6565b9050919050565b61212181612106565b82525050565b600060208201905061213c6000830184612118565b92915050565b61214b81612106565b811461215657600080fd5b50565b60008135905061216881612142565b92915050565b6000806040838503121561218557612184611f0d565b5b600061219385828601612159565b92505060206121a4858286016120a4565b9150509250929050565b6000806000606084860312156121c7576121c6611f0d565b5b60006121d586828701612159565b93505060206121e686828701612159565b92505060406121f7868287016120a4565b9150509250925092565b600080fd5b600080fd5b7f4e487b7100000000000000000000000000000000000000000000000000000000600052604160045260246000fd5b61224382612021565b810181811067ffffffffffffffff821117156122625761226161220b565b5b80604052505050565b6000612275611f03565b9050612281828261223a565b919050565b600067ffffffffffffffff8211156122a1576122a061220b565b5b6122aa82612021565b9050602081019050919050565b82818337600083830152505050565b60006122d96122d484612286565b61226b565b9050828152602081018484840111156122f5576122f4612206565b5b6123008482856122b7565b509392505050565b600082601f83011261231d5761231c612201565b5b813561232d8482602086016122c6565b91505092915050565b60006020828403121561234c5761234b611f0d565b5b600082013567ffffffffffffffff81111561236a57612369611f12565b5b61237684828501612308565b91505092915050565b60006020828403121561239557612394611f0d565b5b60006123a384828501612159565b91505092915050565b6123b581611f9c565b81146123c057600080fd5b50565b6000813590506123d2816123ac565b92915050565b600080604083850312156123ef576123ee611f0d565b5b60006123fd85828601612159565b925050602061240e858286016123c3565b9150509250929050565b600067ffffffffffffffff8211156124335761243261220b565b5b61243c82612021565b9050602081019050919050565b600061245c61245784612418565b61226b565b90508281526020810184848401111561247857612477612206565b5b6124838482856122b7565b509392505050565b600082601f8301126124a05761249f612201565b5b81356124b0848260208601612449565b91505092915050565b600080600080608085870312156124d3576124d2611f0d565b5b60006124e187828801612159565b94505060206124f287828801612159565b9350506040612503878288016120a4565b925050606085013567ffffffffffffffff81111561252457612523611f12565b5b6125308782880161248b565b91505092959194509250565b6000612547826120e6565b9050919050565b6125578161253c565b82525050565b60006080820190506125726000830187611ed9565b61257f6020830186611ed9565b61258c604083018561254e565b6125996060830184611fa8565b95945050505050565b600080604083850312156125b9576125b8611f0d565b5b60006125c785828601612159565b92505060206125d885828601612159565b9150509250929050565b7f4e487b7100000000000000000000000000000000000000000000000000000000600052602260045260246000fd5b6000600282049050600182168061262957607f821691505b60208210810361263c5761263b6125e2565b5b50919050565b7f4552433732313a20617070726f76656420717565727920666f72206e6f6e657860008201527f697374656e7420746f6b656e0000000000000000000000000000000000000000602082015250565b600061269e602c83611fdd565b91506126a982612642565b604082019050919050565b600060208201905081810360008301526126cd81612691565b9050919050565b7f4552433732313a20617070726f76616c20746f2063757272656e74206f776e6560008201527f7200000000000000000000000000000000000000000000000000000000000000602082015250565b6000612730602183611fdd565b915061273b826126d4565b604082019050919050565b6000602082019050818103600083015261275f81612723565b9050919050565b7f4552433732313a20617070726f76652063616c6c6572206973206e6f74206f7760008201527f6e6572206e6f7220617070726f76656420666f7220616c6c0000000000000000602082015250565b60006127c2603883611fdd565b91506127cd82612766565b604082019050919050565b600060208201905081810360008301526127f1816127b5565b9050919050565b7f4552433732313a207472616e736665722063616c6c6572206973206e6f74206f60008201527f776e6572206e6f7220617070726f766564000000000000000000000000000000602082015250565b6000612854603183611fdd565b915061285f826127f8565b604082019050919050565b6000602082019050818103600083015261288381612847565b9050919050565b600081905092915050565b60006128a082611fd2565b6128aa818561288a565b93506128ba818560208601611fee565b80840191505092915050565b60006128d28284612895565b915081905092915050565b7f4552433732313a206f776e657220717565727920666f72206e6f6e657869737460008201527f656e7420746f6b656e0000000000000000000000000000000000000000000000602082015250565b6000612939602983611fdd565b9150612944826128dd565b604082019050919050565b600060208201905081810360008301526129688161292c565b9050919050565b7f4552433732313a2062616c616e636520717565727920666f7220746865207a6560008201527f726f206164647265737300000000000000000000000000000000000000000000602082015250565b60006129cb602a83611fdd565b91506129d68261296f565b604082019050919050565b600060208201905081810360008301526129fa816129be565b9050919050565b7f5265656e7472616e637947756172643a207265656e7472616e742063616c6c00600082015250565b6000612a37601f83611fdd565b9150612a4282612a01565b602082019050919050565b60006020820190508181036000830152612a6681612a2a565b9050919050565b7f506c65617365207375626d6974207468652061736b696e67207072696365206960008201527f6e206f7264657220746f20636f6d706c65746520746865207075726368617365602082015250565b6000612ac9604083611fdd565b9150612ad482612a6d565b604082019050919050565b60006020820190508181036000830152612af881612abc565b9050919050565b7f5072696365206d75737420626520657175616c20746f206c697374696e67207060008201527f7269636500000000000000000000000000000000000000000000000000000000602082015250565b6000612b5b602483611fdd565b9150612b6682612aff565b604082019050919050565b60006020820190508181036000830152612b8a81612b4e565b9050919050565b7f4552433732314d657461646174613a2055524920717565727920666f72206e6f60008201527f6e6578697374656e7420746f6b656e0000000000000000000000000000000000602082015250565b6000612bed602f83611fdd565b9150612bf882612b91565b604082019050919050565b60006020820190508181036000830152612c1c81612be0565b9050919050565b6000612c2f8285612895565b9150612c3b8284612895565b91508190509392505050565b7f4552433732313a206f70657261746f7220717565727920666f72206e6f6e657860008201527f697374656e7420746f6b656e0000000000000000000000000000000000000000602082015250565b6000612ca3602c83611fdd565b9150612cae82612c47565b604082019050919050565b60006020820190508181036000830152612cd281612c96565b9050919050565b7f4552433732313a207472616e736665722066726f6d20696e636f72726563742060008201527f6f776e6572000000000000000000000000000000000000000000000000000000602082015250565b6000612d35602583611fdd565b9150612d4082612cd9565b604082019050919050565b60006020820190508181036000830152612d6481612d28565b9050919050565b7f4552433732313a207472616e7366657220746f20746865207a65726f2061646460008201527f7265737300000000000000000000000000000000000000000000000000000000602082015250565b6000612dc7602483611fdd565b9150612dd282612d6b565b604082019050919050565b60006020820190508181036000830152612df681612dba565b9050919050565b7f4e487b7100000000000000000000000000000000000000000000000000000000600052601160045260246000fd5b6000612e3782611ecf565b9150612e4283611ecf565b925082821015612e5557612e54612dfd565b5b828203905092915050565b6000612e6b82611ecf565b9150612e7683611ecf565b9250827fffffffffffffffffffffffffffffffffffffffffffffffffffffffffffffffff03821115612eab57612eaa612dfd565b5b828201905092915050565b7f4552433732313a206d696e7420746f20746865207a65726f2061646472657373600082015250565b6000612eec602083611fdd565b9150612ef782612eb6565b602082019050919050565b60006020820190508181036000830152612f1b81612edf565b9050919050565b7f4552433732313a20746f6b656e20616c7265616479206d696e74656400000000600082015250565b6000612f58601c83611fdd565b9150612f6382612f22565b602082019050919050565b60006020820190508181036000830152612f8781612f4b565b9050919050565b7f4552433732313a20617070726f766520746f2063616c6c657200000000000000600082015250565b6000612fc4601983611fdd565b9150612fcf82612f8e565b602082019050919050565b60006020820190508181036000830152612ff381612fb7565b9050919050565b7f4552433732313a207472616e7366657220746f206e6f6e20455243373231526560008201527f63656976657220696d706c656d656e7465720000000000000000000000000000602082015250565b6000613056603283611fdd565b915061306182612ffa565b604082019050919050565b6000602082019050818103600083015261308581613049565b9050919050565b600061309782611ecf565b91507fffffffffffffffffffffffffffffffffffffffffffffffffffffffffffffffff82036130c9576130c8612dfd565b5b600182019050919050565b7f4e487b7100000000000000000000000000000000000000000000000000000000600052601260045260246000fd5b600061310e82611ecf565b915061311983611ecf565b925082613129576131286130d4565b5b828204905092915050565b600061313f82611ecf565b915061314a83611ecf565b92508261315a576131596130d4565b5b828206905092915050565b7f4e487b7100000000000000000000000000000000000000000000000000000000600052603260045260246000fd5b600081519050919050565b600082825260208201905092915050565b60006131bb82613194565b6131c5818561319f565b93506131d5818560208601611fee565b6131de81612021565b840191505092915050565b60006080820190506131fe6000830187612118565b61320b6020830186612118565b6132186040830185611ed9565b818103606083015261322a81846131b0565b905095945050505050565b60008151905061324481611f43565b92915050565b6000602082840312156132605761325f611f0d565b5b600061326e84828501613235565b9150509291505056fea264697066735822122023199dd15e25a3f43a72c2ee0065168763a62b00bc81bdc4c52f49783b835bfb64736f6c634300080d0033",
  "immutableReferences": {},
  "source": "// SPDX-License-Identifier: MIT\npragma solidity 0.8.13;\n\nimport \"@openzeppelin/contracts/utils/Counters.sol\";\nimport \"@openzeppelin/contracts/token/ERC721/ERC721.sol\";\nimport \"@openzeppelin/contracts/security/ReentrancyGuard.sol\";\n\ncontract NFT is ERC721 {\n    mapping(uint256 => string) public colorsName;\n    mapping(string => bool) _colorExists;\n\n    using Counters for Counters.Counter;\n    Counters.Counter private tokenIds;\n\n    constructor() ERC721(\"ColorToken\", \"CT\") { }\n\n    function getTokenCount() public view returns (uint256) {\n        return tokenIds.current();\n    }\n\n    function createToken(string memory colorCode) public {\n        require(!_colorExists[colorCode]);\n\n        tokenIds.increment();\n        uint256 tokenId = tokenIds.current();\n        colorsName[tokenId] = colorCode;\n\n        _colorExists[colorCode] = true;\n\n        _mint(msg.sender, tokenId);\n    }\n}\n\ncontract NFTMarket is NFT,ReentrancyGuard {\n    using Counters for Counters.Counter;\n    Counters.Counter public itemIds;\n\n    address payable owner;\n    uint256 listingPrice = 0.025 ether;\n\n    constructor() {\n        owner = payable(msg.sender);\n    }\n\n    struct MarketItem {\n        uint256 itemId;\n        uint256 tokenId;\n        address payable seller;\n        bool sold;\n    }\n\n    mapping(uint256 => MarketItem) public idToMarketItem;\n\n    function getItemCount() public view returns (uint256) {\n        return itemIds.current();\n    }\n\n    /* Places an item for sale on the marketplace */\n    function putNFTOnSale(uint256 tokenId)\n        public\n        payable\n        nonReentrant\n    {\n        \n        require(msg.sender == ownerOf(tokenId));\n        require(msg.value == listingPrice, \"Price must be equal to listing price\");\n\n        approve(address(this), tokenId);\n\n        itemIds.increment();\n        uint256 itemId = itemIds.current();\n\n        idToMarketItem[itemId] = MarketItem(\n            itemId,\n            tokenId,\n            payable(msg.sender),\n            false\n        );\n    }\n\n    /* Creates the sale of a marketplace item */\n    /* Transfers ownership of the item, as well as funds between parties */\n    function finalizeSale(uint256 itemId)\n        public\n        payable\n        nonReentrant\n    {\n        uint256 tokenId = idToMarketItem[itemId].tokenId;\n        require(msg.sender != ownerOf(tokenId));\n        require(\n            msg.value == 1 ether,\n            \"Please submit the asking price in order to complete the purchase\"\n        );\n\n        idToMarketItem[itemId].seller.transfer(msg.value);\n        transferFrom(\n            idToMarketItem[itemId].seller,\n            msg.sender,\n            tokenId\n        );\n        idToMarketItem[itemId].sold = true;\n        payable(owner).transfer(listingPrice);\n    }\n}",
  "sourcePath": "/home/node/lab/NFT/contracts/NFT.sol",
  "compiler": {
    "name": "solc",
    "version": "0.8.13+commit.abaa5c0e.Emscripten.clang"
  },
  "schemaVersion": "3.4.7",
  "updatedAt": "2022-05-03T21:14:37.226Z",
  "devdoc": {
    "kind": "dev",
    "methods": {
      "approve(address,uint256)": {
        "details": "See {IERC721-approve}."
      },
      "balanceOf(address)": {
        "details": "See {IERC721-balanceOf}."
      },
      "getApproved(uint256)": {
        "details": "See {IERC721-getApproved}."
      },
      "isApprovedForAll(address,address)": {
        "details": "See {IERC721-isApprovedForAll}."
      },
      "name()": {
        "details": "See {IERC721Metadata-name}."
      },
      "ownerOf(uint256)": {
        "details": "See {IERC721-ownerOf}."
      },
      "safeTransferFrom(address,address,uint256)": {
        "details": "See {IERC721-safeTransferFrom}."
      },
      "safeTransferFrom(address,address,uint256,bytes)": {
        "details": "See {IERC721-safeTransferFrom}."
      },
      "setApprovalForAll(address,bool)": {
        "details": "See {IERC721-setApprovalForAll}."
      },
      "supportsInterface(bytes4)": {
        "details": "See {IERC165-supportsInterface}."
      },
      "symbol()": {
        "details": "See {IERC721Metadata-symbol}."
      },
      "tokenURI(uint256)": {
        "details": "See {IERC721Metadata-tokenURI}."
      },
      "transferFrom(address,address,uint256)": {
        "details": "See {IERC721-transferFrom}."
      }
    },
    "version": 1
  },
  "userdoc": {
    "kind": "user",
    "methods": {},
    "version": 1
  }
}